:020000040800F2
:10000000E012002045010008E7200008E920000870
:10001000ED200008F1200008F52000080000000095
:10002000000000000000000000000000F9200008AF
:10003000FB20000800000000FD200008FF20000851
:100040005F0100085F0100085F0100085F01000810
:100050005F0100085F0100085F0100085F01000800
:100060005F0100085F0100085F0100085F010008F0
:100070005F0100085F0100085F0100085F010008E0
:100080005F0100085F010008E91F00085F01000828
:10009000851F00085F0100085F0100085F0100087C
:1000A0005F0100085F0100085F0100085F010008B0
:1000B0005F0100085F0100085F0100085F010008A0
:1000C0005F0100085F0100085F0100085F01000890
:1000D0005F0100085F0100085F0100085F01000880
:1000E0005F0100085F0100085F0100085F01000870
:1000F0005F0100085F0100085F0100085F01000860
:100100005F0100085F0100085F0100085F0100084F
:100110005F0100085F0100085F0100085F0100083F
:100120005F0100085F0100085F0100085F0100082F
:10013000DFF80CD003F03CF8004800474B1F0008E4
:10014000E01200200648804706480047FEE7FEE729
:10015000FEE7FEE7FEE7FEE7FEE7FEE7FEE7FEE777
:1001600047020008310100080CB500200190009002
:100170006C48006840F480306A49086000BF6948F4
:10018000006800F4003000900198401C0190009835
:1001900018B90198B0F5A06FF1D16248006800F479
:1001A000003010B10120009001E000200090009884
:1001B000012843D15C48006840F010005A490860AB
:1001C0000846006820F0030008600846006840F018
:1001D0000200086053484068524948600846406839
:1001E00048600846406840F48060486008464068BF
:1001F00020F47C1048600846406840F4E8104860ED
:100200000846006840F08070086000BF45480068FC
:1002100000F000700028F9D04248406820F0030048
:10022000404948600846406840F00200486000BF0E
:100230003C48406800F00C000828F9D10CBD10B50E
:10024000FFF792FF10BD10B53648006840F001007E
:1002500034490860084640683449084031494860DC
:1002600008460068324908402E4908600846006880
:1002700020F4802008600846406820F4FE004860B2
:100280004FF41F008860FFF7DAFF4FF00060294944
:10029000086010BD10B5002100200022214B5B68D2
:1002A00003F00C0121B1042906D0082928D107E068
:1002B000214B224C236027E01F4B204C236023E07E
:1002C000184B5B6803F47010164B5B6803F48032C4
:1002D000022303EB904022B9194B4343174C236090
:1002E0000DE0104B5B6803F4003323B1144B434320
:1002F000124C236003E0104B4343104C236003E097
:100300000D4B0E4C236000BF00BF064B5B68C3F370
:1003100003130C4CE15C094B1B68CB40074C23607A
:1003200010BD000000100240002002400000FFF855
:10033000FFFFF6FE08ED00E000127A00000000204A
:1003400000093D000400002031490143314A116099
:10035000704770B5002100230F22C47804B32D4CE0
:10036000246804F4E064C4F5E064210AC1F10403E4
:10037000CA40447804FA03F1847814402143090107
:10038000254C0678A155047804F01F050124AC40E3
:1003900005786D11AD0005F1E025C5F8004109E0D3
:1003A000047804F01F050124AC401C4D067876113A
:1003B00045F8264070BD1A4A0A400243154B1B1FE0
:1003C0001A60704739B1134A121D12680243114B6B
:1003D0001B1D1A6006E00F4A121D126882430D4B66
:1003E0001B1D1A607047042808D14FF0E0210969ED
:1003F00041F004014FF0E022116107E04FF0E021ED
:10040000096921F004014FF0E022116170470000FA
:100410000000FA050CED00E000E400E080E100E0FF
:1004200080FFFF1F10B50446FA48844208D101211D
:10043000401501F033FB0021601501F02FFB17E0A0
:10044000F548844208D10121001501F027FB002165
:10045000201501F023FB0BE0F048844208D1012174
:10046000C80301F01BFB00214FF4004001F016FB14
:1004700010BD30B50246002000235068E84C2040F3
:100480000D790C6844EA0524204350609068E54CDF
:100490002040D1E902542C434D7944EA45042043DD
:1004A0009060D06A20F470000C7C641EE4B2234398
:1004B00040EA0350D06230BD0021016001714171FA
:1004C0008160C16001210174704721B1826842F0EE
:1004D0000102826003E0826822F0010282607047BC
:1004E00021B1826842F48072826003E0826822F463
:1004F00080728260704710B50023CBB21AB1446895
:100500001C43446002E044689C43446010BD816821
:1005100041F0080181607047014600208A6802F0BE
:1005200008020AB1012000E000207047816841F014
:10053000040181607047014600208A6802F00402CD
:100540000AB1012000E00020704721B1826842F426
:10055000A002826003E0826822F4A00282607047F9
:10056000014600208A6802F480020AB1012000E0FE
:100570000020704710B50A4600210023416821F48D
:100580006041531E41EA4331416010BD21B14268D0
:1005900042F40062426003E0426822F4006242607A
:1005A0007047F0B504460D4600200021092D11DDED
:1005B000E068A5F10A0606EB4607072606FA07F1EA
:1005C0008843A5F10A0606EB460603FA06F108433E
:1005D000E0600CE0206905EB4507072606FA07F105
:1005E000884305EB450603FA06F108432061072A14
:1005F0000FDA606B561E06EB86071F2606FA07F118
:100600008843561E06EB860605FA06F1084360632A
:1006100022E00D2A0FDA206BD61F06EB86071F2675
:1006200006FA07F18843D61F06EB860605FA06F19F
:100630000843206310E0E06AA2F10D0606EB86078E
:100640001F2606FA07F18843A2F10D0606EB86067F
:1006500005FA06F10843E062F0BD21B1826842F478
:100660008012826003E0826822F480128260704708
:100670000146C86C80B2704766484C3000687047CD
:1006800021B1426842F48062426003E0426822F491
:1006900080624260704721B1426842F480524260F9
:1006A00003E0426822F48052426070470A4600210B
:1006B000816821F4E04111438160704721B1826873
:1006C00042F40042826003E0826822F400428260C9
:1006D000704721B1826842F40212826003E08268AE
:1006E00022F4021282607047014600208A6802F4F8
:1006F00000120AB1012000E000207047F0B5044666
:100700001546002000220026092911DDE068A1F12C
:100710000A0707EB470C072707FA0CF29043A1F1F1
:100720000A0707EB470703FA07F21043E0600CE003
:10073000206901EB410C072707FA0CF2904301EB0B
:10074000410703FA07F210432061A06BC0F3015682
:10075000EF1C06F1010CA7EB0C0707EB870C1F271A
:1007600007FA0CF29043EF1C06F1010CA7EB0C0703
:1007700007EB870701FA07F21043A063F0BD10B53D
:100780000A4600210023816B21F44011531E41EAE7
:100790000351816310BD08B5002300930090009BB6
:1007A0000B440093009B1A6008BD08B50246002068
:1007B0000090009201F12800009B184400900098DE
:1007C000006880B208BD0A4600214168164B1940F6
:1007D0001143416070474162826270470A460021BE
:1007E000416821F01F0111434160704740B1094940
:1007F0000831096841F40001064A0832116007E037
:1008000004490831096821F40001024A08321160E4
:10081000704700000024014000280140003C0140D6
:10082000FFFEF0FFFDF7F1FFFFFD3FFF0246002056
:1008300013680B400BB1012000E000207047CA4351
:100840000260704770B502460020002300240B129E
:100850005568CEB205EA060415681D4015B10CB105
:10086000012000E0002070BD00220A12D343036083
:100870007047000010B50446FE48844209D10121AA
:10088000480601F018F900214FF0007001F013F94B
:1008900008E00121880601F00EF900214FF0806088
:1008A00001F009F910BD30B502460020002314689C
:1008B00024F002041460146844F00104146000E0A1
:1008C0005B1C546804F001041CB94FF6FF74A3428A
:1008D000F6D1546804F001040CB900206CE08C7966
:1008E000012C04D1146844F08004146003E01468FF
:1008F00024F080041460CC79012C04D1146844F0F5
:100900004004146003E0146824F0400414600C7A7E
:10091000012C04D1146844F02004146003E014682E
:1009200024F0200414604C7A012C04D1146844F0A3
:100930001004146003E0146824F0100414608C7A2E
:10094000012C04D1146844F00804146003E0146816
:1009500024F008041460CC7A012C04D1146844F00B
:100960000404146003E0146824F0040414608C7818
:10097000A407CD7844EA05640D7944EA05444D792D
:1009800044EA05540D886D1E2C43D461146824F08C
:1009900001041460002300E05B1C546804F00104AF
:1009A0001CB14FF6FF74A342F6D1546804F0010461
:1009B0000CB1002000E0012030BD10B50021837A89
:1009C000012202FA03F1AC4A126842F00102AA4B7A
:1009D0001A60A94A1C3212688A43A74B1C331A605A
:1009E000027BCAB9A44A0C3212688A43A24B0C3368
:1009F0001A604288C38842EA03439F4A4032847A9D
:100A000042F834300288838842EA03439A4A4032EB
:100A1000847A02EBC4025360027B012A19D1964A00
:100A20000C3212680A43944B0C331A6042880388D4
:100A300042EA0343904A4032847A42F83430C28812
:100A4000838842EA03438C4A4032847A02EBC40230
:100A50005360C27A3AB9884A121D12688A43864B9B
:100A60001B1D1A6006E0844A121D12680A43824B5D
:100A70001B1D1A60028932B97F4A143212688A43F8
:100A80007D4B14331A600289012A06D17A4A143246
:100A900012680A43784B14331A60427B012A06D14C
:100AA000754A1C3212680A43734B1C331A60724A2F
:100AB000126822F00102704B1A6010BD0021817192
:100AC000C171017241728172C1728170C170032162
:100AD0000171022141710121018070476649096855
:100AE00041F00101644A11601146096843F60E7233
:100AF0009143614A11601146096841EA0021116081
:100B00001146096821F001011160704721B10268A6
:100B100042F48032026003E0026822F48032026014
:100B20007047E1B1026842F0800202604FF4C27285
:100B3000125842F480734FF4C27213504FF4CA72C9
:100B4000125842F480734FF4CA7213504FF4D272A9
:100B5000125842F480734FF4D27213501BE00268B3
:100B600022F0800202604FF4C272125822F48073A5
:100B70004FF4C27213504FF4CA72125822F48073A9
:100B80004FF4CA7213504FF4D272125822F4807389
:100B90004FF4D2721350704710B50246002093688C
:100BA00003F08063B3F1806F00D110E0936803F02D
:100BB0000063B3F1006F01D1012008E0936803F0F6
:100BC0008053B3F1805F01D1022000E004200428AB
:100BD00079D002F5C07303EB00131B6803F0010426
:100BE00002F5C07303EB00131C600B7A7BB94B7AE0
:100BF0000C8843EA445302F5C07404EB00142468E3
:100C0000234302F5C07404EB0014236010E00B7A58
:100C10004C6843EAC4034C7A234302F5C07404EBE6
:100C200000142468234302F5C07404EB001423600D
:100C30008B7A03F00F038B7202F5C07303EB001382
:100C40005B6823F00F0402F5C07303EB00135C60D4
:100C500002F5C07303EB00135B688C7A234302F543
:100C6000C07404EB001463608B7B1C064B7B44EA6E
:100C7000034403E000640040006600400B7B44EA4C
:100C80000323CC7A234302F5C07404EB0014A36061
:100C90008B7C1C064B7C44EA03440B7C44EA032314
:100CA000CC7B234302F5C07404EB0014E36002F52F
:100CB000C07303EB00131B6843F0010402F5C0731B
:100CC00003EB00131C6010BD10B50246002321B1D8
:100CD000012907D002290FD109E09068F94C00EAF8
:100CE00004030BE09068F84C00EA040306E0906807
:100CF000F64C00EA040301E0002300BF00BFF44CFF
:100D0000181BA34216D007DC83B16FF08060184433
:100D100070B1022818D111E0B0F5007F10D0ED4C71
:100D2000204448B1B0F5003F0ED10BE002230DE0A6
:100D300000230BE0002309E0002307E0012305E086
:100D4000012303E0012301E0002300BF00BFD8B26C
:100D500010BD21B1012907D002290FD109E0826815
:100D600042F0800282600AE0826842F400428260BF
:100D700005E0826842F40002826000E000BF00BF2C
:100D8000704710B500F5D87303EB01131B6803F02F
:100D900004031372137A53B900F5D87303EB0113EC
:100DA0001B6840F2FF7404EA5353136009E000F536
:100DB000D87303EB01131B686FF0604404EAD3039C
:100DC000536000F5D87303EB01131B6803F00203B3
:100DD000537200F5D87303EB01135B6803F00F0344
:100DE000937200F5D87303EB01135B681B0AD3748D
:100DF00000F5D87303EB01139B68D37200F5D87329
:100E000003EB01139B681C0A147300F5D87303EB02
:100E100001139B681C0C547300F5D87303EB01138A
:100E20009B681B0E937300F5D87303EB0113DB680B
:100E3000D37300F5D87303EB0113DB681C0A147439
:100E400000F5D87303EB0113DB681C0C547400F538
:100E5000D87303EB0113DB681B0E937421B9C368CD
:100E600043F02003C36003E0036943F02003036100
:100E700010BD21B9C26842F02002C26003E00269DD
:100E800042F02002026170470246002019B9D3687F
:100E900003F0030006E0012903D1136903F0030006
:100EA00000E00020704710B502460B4600204FF6C8
:100EB000FF71BBB9146824F0020444F0010414600B
:100EC00000E0491E546804F00304012C01D00029FD
:100ED000F7D1546804F00304012C01D0002032E063
:100EE000012030E0012B13D1146824F003041460B6
:100EF00000E0491E546804F003040CB10029F8D145
:100F0000546804F003040CB100201CE001201AE036
:100F1000022B17D1146824F0010444F00204146079
:100F200000E0491E546804F00304022C01D000299B
:100F3000F7D1546804F00304022C01D0002002E031
:100F4000012000E0002010BD014600200A6822F0C8
:100F5000010242F002020A604A6802F00302022A19
:100F600000D10120704701464FF6FF7200200B6848
:100F700023F002030B6000E0521E4B6803F00203F3
:100F8000022B01D1002AF7D14B6803F00203022B98
:100F900000D001207047014600208A6902F07000ED
:100FA0007047014600208A69100E704701460020F4
:100FB0008A69C2F3074070471AB143690B43436122
:100FC00002E043698B434361704710B5024600203D
:100FD00001F4700343B19369C1F3130423400BB1CF
:100FE00001202DE000202BE001F0807343B1536815
:100FF000C1F3130423400BB1012021E000201FE0C6
:1010000001F0006343B19368C1F3130423400BB1B3
:10101000012015E0002013E001F0007343B1D36814
:10102000C1F3130423400BB1012009E0002007E0C5
:101030001369C1F3130423400BB1012000E0002029
:1010400010BD0022244B994202D10023836111E09C
:10105000C1F3130201F000730BB1C2600AE001F0AA
:1010600080630BB1026105E001F000630BB18260A7
:1010700000E0426070470246002002EA01030BB123
:10108000012000E00020704770B504460D460026A0
:1010900060692840002872D0B5F5807F69D01DDCDA
:1010A000082D42D006DC012D2DD0022D31D0042D8B
:1010B0007FD134E0102D3ED0202D42D0402D78D16C
:1010C00045E00000030000040003000800000310D6
:1010D000000100080001FFF77000F030B5F5004F87
:1010E00061D009DCB5F5007F4AD0B5F5806F4DD0F1
:1010F000B5F5006F5DD150E0B5F5803F2DD0B5F569
:10110000003F56D12FE0A0685549FFF7B4FF0646CF
:1011100051E0E0680321FFF7AEFF06464BE0E068D0
:101120000821FFF7A8FF064645E0E0681021FFF719
:10113000A2FF06463FE020690321FFF79CFF064619
:1011400039E020690821FFF796FF064633E0206961
:101150001021FFF790FF06462DE060680821FFF799
:101160008AFF064627E060681021FFF784FF0646E5
:1011700021E0A0690121FFF77EFF06461BE01BE08E
:10118000A0690221FFF777FF064614E0A069042159
:10119000FFF771FF06460EE00BE0A0697021FFF734
:1011A0006AFF064607E060680421FFF764FF064611
:1011B00001E0002600BF00E00026304670BDB1F51A
:1011C000007F3AD00FDC202928D006DC01291CD072
:1011D00004291DD0082940D11DE0402921D0B1F5B6
:1011E000807F3AD126E0B1F5004F31D006DCB1F571
:1011F000806F25D0B1F5006F2FD124E0B1F5803F8D
:1012000012D0B1F5003F28D111E0154A826025E0E7
:101210000822C26022E01022C2601FE008220261A0
:101220001CE01022026119E00822426016E0102240
:10123000426013E00422426010E0042242600DE0AC
:10124000042242600AE0002282610422426005E03A
:10125000002282610422426000E000BF00BF7047AC
:101260000101010010B50121480700F024FC002114
:101270004FF0005000F01FFC10BD30B500220023DD
:101280005A4C226840F6FE748440A243D1E90045DE
:101290002C438D682C43CD6844EA050303FA00F41F
:1012A0002243524C226030BD0021016041608160C8
:1012B000C160704739B14D4A1268012383401A4317
:1012C0004A4B1A6006E0494A1268012383409A4358
:1012D000464B1A60704741B1444A12684FF480533C
:1012E00083401A43414B1A6007E0404A12684FF4AA
:1012F000805383409A433D4B1A60704710B551B1FB
:101300003A4A121D126804090123A3401A43374BBD
:101310001B1D1A6009E0354A121D126804090123D9
:10132000A3409A43314B1B1D1A6010BD40B12F4999
:10133000091D096841F003012C4A121D116007E0E4
:101340002A49091D096821F00301284A121D11606C
:10135000704710B53AB1254B1B6801FA00F42343DE
:10136000224C236006E0214B1B6801FA00F4A343E2
:101370001E4C236010BD08B5002200921B4A00924B
:1013800000F10802009B1A440092009A116008BD07
:1013900008B500220092154A009200F11402009B49
:1013A0001A440092009A116008BD30B50024002351
:1013B000082802D142EA012401E042EA01440B4B31
:1013C00000F120052B441C6030BD08B5014600200B
:1013D0000090064800902C2000EB9100009A1044E9
:1013E00000900098006880B208BD000000740040C2
:1013F00010B50446CC48844208D10121042000F0F5
:101400004DFB0021042000F049FB46E0C748844220
:1014100008D10121082000F041FB0021082000F044
:101420003DFB3AE0C248844208D10121102000F07F
:1014300035FB0021102000F031FB2EE0BD48844236
:1014400008D10121202000F029FB0021202000F0FC
:1014500025FB22E0B848844208D10121402000F059
:101460001DFB0021402000F019FB16E0B348844228
:1014700008D10121802000F011FB0021802000F024
:101480000DFB0AE0AE48844207D10121801500F02F
:1014900005FB0021A01500F001FB10BD10B50121D6
:1014A000084600F0FBFA0021012000F0F7FA10BD19
:1014B0002DE9F041024600250026002000230024EB
:1014C000002791F803C00CF00F0591F803C00CF051
:1014D000100CBCF1000F03D091F802C04CEA0505D6
:1014E00091F800C0BCF1000F31D0146800202BE04F
:1014F0004FF0010C0CFA00F3B1F800C00CEA03063F
:101500009E4220D183004FF00F0C0CFA03F7BC432E
:1015100005FA03FC4CEA040491F803C0BCF1280F5F
:1015200006D14FF0010C0CFA00FCC2F814C00AE01E
:1015300091F803C0BCF1480F05D14FF0010C0CFA33
:1015400000FCC2F810C0401C0828D1D31460B1F8C8
:1015500000C0BCF1FF0F34DD546800202EE000F124
:10156000080C4FF0010808FA0CF3B1F800C00CEABF
:1015700003069E4221D183004FF00F0C0CFA03F7B3
:10158000BC4305FA03FC4CEA040491F803C0BCF127
:10159000280F05D100F1080C08FA0CF8C2F81480E5
:1015A00091F803C0BCF1480F07D100F1080C4FF0CF
:1015B000010808FA0CF8C2F81080401C0828CED3A5
:1015C0005460BDE8F0814FF6FF7101800221817007
:1015D0000421C17070470246002093680B400BB194
:1015E000012000E0002070470146886880B2704703
:1015F00002460020D3680B400BB1012000E0002020
:1016000070470146C86880B2704701617047416108
:1016100070470AB1016100E041617047C1607047E5
:101620004FF480320A4382618161826182698269FA
:10163000704702460020434B18684FF680731840ED
:1016400040EA021008433F4B186070473E49C861AA
:101650007047F0B50A46002300240021002500F061
:101660000046B6F1004F02D1364EF16901E0354E29
:101670007168C0F3034583B200F44016B6F5401F0D
:1016800008D121F070612F4E766826F070662D4FDC
:101690007E6012E000F48016B6F5801F06D10326A6
:1016A00006FA05F4A14341F0706106E0460D3601EB
:1016B00003FA06F6B14341F0706122B1460D3601DE
:1016C00003FA06F6314300F00046B6F1004F02D1AE
:1016D0001C4EF16101E01B4E7160F0BD30B500227F
:1016E0008B071C0F0F2303FA04F2164B08338C10E0
:1016F00053F824309343134C08348D1044F82530AC
:1017000023468C1053F824308C07240F00FA04F47D
:1017100023430C4C08348D1044F8253030BD0A4961
:10172000DC3108607047000000080140000C0140F7
:10173000001001400014014000180140001C01404D
:101740000020014000000140000020420E490860D6
:1017500070470D49486070470B49886070474AF6EA
:10176000AA200949086070474CF6CC400649086039
:10177000704701460020044AD2680A400AB101209D
:1017800000E000207047000000300040DF480068A3
:1017900040F00100DD49086008464068DC49084027
:1017A000DA49486008460068DA490840D7490860C5
:1017B0000846006820F4802008600846406820F44D
:1017C000FE0048604FF41F0088607047CF490968E9
:1017D00021F48031CD4A11601146096821F480213D
:1017E0001160B0F5803F03D0B0F5802F0ED106E038
:1017F000C649096841F48031C44A116007E0C34911
:10180000096841F4A021C14A116000E000BF00BF97
:10181000704710B501460022002300204A11012A1A
:1018200002D1BA4C236806E0022A02D1B74C236ADF
:1018300001E0B64C636A01F01F02012494401C4091
:101840000CB1012000E0002010BD38B50020009050
:101850000024002500BF3120FFF7DBFF054600987C
:10186000401C00900098B0F5A06F01D0002DF2D080
:101870003120FFF7CEFF08B1012400E0002420460C
:1018800038BD01460020A14A106820F0F80040EA67
:10189000C10010607047A0490860704702460020F0
:1018A0009A4B586820F47C1042EA01031843974B86
:1018B0005860704798490866704701460020934A6F
:1018C000506820F003000843506070478F4840681C
:1018D00000F00C007047014600208C4A506820F050
:1018E000F00008435060704701460020874A506866
:1018F00020F4E06008435060704701460020834AAE
:10190000506820F4605040EAC1005060704729B12F
:101910007E4A527A02437D4B5A7204E07B4A527AE5
:1019200082437A4B5A7270477B49D83108607047BE
:1019300001460020754A506820F44040084350603A
:1019400070470021714A20321170704A82F82010CD
:10195000012802D004280AD104E001216B4A203278
:10196000117005E00521694A2032117000E000BFC6
:1019700000BF70476949086070476449096A0143BC
:10198000624A11627047654944390860704730B552
:1019900000210022002400235C4D6D6805F00C013D
:1019A00021B1042905D0082923D105E05C4D05604B
:1019B00022E05B4D05601FE0544D6D6805F4701228
:1019C000524D6D6805F48034022505EB92421CB936
:1019D000544D554305600BE04C4D6D6805F40035E2
:1019E0001DB1504D5543056002E04D4D5543056016
:1019F00002E04B4D056000BF00BF444D6D6805F02F
:101A0000F0010909484D6B5C0568DD4045603F4DBC
:101A10006D6805F4E061090A434D6B5C4568DD4083
:101A200085603A4D6D6805F46051C90A3E4D6B5CA6
:101A30004568DD40C560354D6D6805F44041890B52
:101A40003A4D6B5CC568B5FBF3F5056130BD29B156
:101A50002E4A526902432D4B5A6104E02B4A5269C7
:101A600082432A4B5A61704729B1284A926902433E
:101A7000264B9A6104E0254A92698243234B9A617E
:101A8000704729B1214AD2690243204BDA6104E050
:101A90001E4AD26982431D4BDA61704729B11B4A45
:101AA000D2680243194BDA6004E0184AD2688243D4
:101AB000164BDA60704729B1144A12690243134B7E
:101AC0001A6104E0114A12698243104B1A6170478F
:101AD00012494039086070470F49C86470470B4984
:101AE000C87170470948406A40F0807007494862F1
:101AF000704701460020054A92680A400AB1012059
:101B000000E00020704701498872704700100240D1
:101B10000000FFF8FFFFF6FE000042428004424250
:101B200000127A0000093D0014000020240000206B
:101B300010B50446FB48844209D101218803FFF710
:101B4000ADFF00214FF48040FFF7A8FF32E0F648D8
:101B5000844209D101214804FFF7ADFF00214FF471
:101B60000030FFF7A8FF25E0F048844209D10121A9
:101B70008804FFF7A0FF00214FF48020FFF79BFFB0
:101B800018E0EB48844209D10121C804FFF793FF14
:101B900000214FF40020FFF78EFF0BE0E548844260
:101BA00008D101210805FFF786FF00214FF48010BE
:101BB000FFF781FF10BD2DE9F04786B005460E46C0
:101BC0000024A24600BFA1460027B08900B100BF93
:101BD0002F462C8A4CF6FF700440F08804432C8278
:101BE000AC894EF6F3100440B088318908437189FE
:101BF00008430443AC81AC8A4FF6FF400440B089EF
:101C00000443AC8201A8FFF7C2FEC648874202D156
:101C1000DDF810A001E0DDF80CA0A88900F4004078
:101C200040B10AEBCA0000EB0A1031684900B0FB72
:101C3000F1F807E00AEBCA0000EB0A1031688900EE
:101C4000B0FBF1F86420B8FBF0F004012009642136
:101C500001FB1089A88900F4004040B1322000EB5C
:101C6000C900B0FBF1F000F00700044308E03220A7
:101C700000EB09106421B0FBF1F000F00F00044309
:101C80002C8106B0BDE8F0874FF4165101600021A9
:101C90008180C18001810C214181002181817047B7
:101CA00010B502460020108A4FF2FF0318400B883F
:101CB0004C8823438C882343CC88234318431082C9
:101CC00010BD0021018041808180C180704721B119
:101CD000828942F40052828104E082894DF6FF73CA
:101CE0001A4082817047F0B5034600240026002583
:101CF000002040F66A17B94200D100BF1846C1F370
:101D0000421401F01F06012707FA06F5012C01D144
:101D10000C3004E0022C01D1103000E014301AB174
:101D200007682F43076002E00768AF430760F0BD14
:101D30001AB1838A0B43838202E0838A8B438382B6
:101D40007047028A4FF6F0731A400282028A0A43F1
:101D50000282704782894FF2FF731A408281828922
:101D60000A438281704721B1828942F00202828156
:101D700004E082894FF6FD731A4082817047028A1F
:101D80004FF6DF731A400282028A0A4302827047CA
:101D900021B1028A42F48042028204E0028A4BF6B8
:101DA000FF731A4002827047C1F3080282807047B5
:101DB00001468888C0F308007047818941F001011D
:101DC00081817047028BD2B20283028B42EA0122E8
:101DD00002837047028B02F47F420283028B0A4324
:101DE0000283704721B1828A42F02002828204E09D
:101DF000828A4FF6DF731A408282704721B1828A4D
:101E000042F01002828204E0828A4FF6EF731A4099
:101E10008282704721B1828A42F00802828204E005
:101E2000828A4FF6F7731A408282704721B1828905
:101E300042F40042828103E08289C2F30E02828171
:101E4000704721B1828A42F40062828204E0828A71
:101E50004FF2FF731A4082827047828A4FF6FB73FB
:101E60001A408282828A0A438282704721B1828A22
:101E700042F00202828204E0828A4FF6FD731A4029
:101E80008282704702460020B1F5007F00D100BF7A
:101E900013880B400BB1012000E00020704701F4D3
:101EA0000072B2F5007F00D100BFCA4302807047C4
:101EB00070B50246002400230025002040F66A1673
:101EC000B14200D100BFC1F3421501F01F0301264A
:101ED00006FA03F3012D02D19689334006E0022D64
:101EE00002D1168A334001E0968A33400C12012653
:101EF00006FA04F41688344013B10CB1012000E056
:101F0000002070BD10B50022002340F66A14A142E3
:101F100000D100BF0A1201249440A3B2DC43048024
:101F200010BD00000038014000440040004800405F
:101F3000004C00400050004001B502E00098401EF7
:101F4000009000980028F9D108BD00BF00BF00BF75
:101F500000BF00BF00BF00F061FD00F0EBF800F033
:101F6000C7FC00F0AFF900F005FD00F0F9FC00F04F
:101F70002FFE00F06DFE10200149086100BFFEE752
:101F80000010014010B5604A00216048FEF7F9FEDC
:101F90005D48406841F20101884203D101205C495B
:101FA000086020E05848406841F20201884203D1AD
:101FB00002205749086016E05348406841F2030187
:101FC000884203D10320524908600CE04E48406823
:101FD00041F20401884203D104204D49086002E027
:101FE000FF204B49086010BD70B54FF40871494897
:101FF000FEF728FC012870D14748006820B101286D
:102000000ED0022824D117E04248FEF731FB4249A6
:102010000D68691C404A1160404921F8150017E01D
:102020003C48FEF725FB3C490D68691C3A4A1160A3
:102030003A4921F815000BE03648FEF719FB3649FE
:102040000D68691C344A1160344921F8150000BF3D
:1020500000BF31480068032823D100240BE0304939
:10206000304A126801EB420001882C4A32F81420F1
:1020700011440180641C032CF1DB2949294A1268B0
:1020800031F81210032291FBF2F18AB22549086857
:10209000411C244B1960224921F8102000201E49C0
:1020A000086020480068962817D100224FF4087174
:1020B0001848FEF720FA00240AE0194830F8140006
:1020C00028B1174830F8141017A001F011F9641C5A
:1020D000962CF2DB0020134908604FF408710D487C
:1020E000FEF7C2FB70BD704700BFFEE700BFFEE712
:1020F00000BFFEE700BFFEE770477047704710B5AE
:1021000000F0D3FC10BD00009800002000640040E7
:10211000280000200024014048000020CC000020BE
:10212000F80100204C0000200D0A20202564200D1D
:102130000A00000000B585B001218803FFF794FC78
:1021400001210420FFF790FC4FF40070ADF810005F
:1021500018208DF8130003208DF8120004A92248DE
:10216000FFF7A6F94FF48060ADF8100004208DF859
:10217000130004A91C48FFF79BF94FF4E1300090CD
:102180000020ADF80400ADF80600ADF80800ADF889
:102190000C000C20ADF80A0069461448FFF70BFD4F
:1021A00001211248FFF793FD05B000BD70B504464C
:1021B0000D46E1B20D48FFF7F7FD00BF80210B4847
:1021C000FFF760FE0028F9D0204670BD10B5044628
:1021D00000BF20210548FFF755FE0028F9D003482D
:1021E000FFF7E6FD10BD0000000801400038014087
:1021F00008B501214FF40470FFF736FC0120ADF85B
:10220000000000208DF803006946F748FFF750F9F9
:1022100008BD00B585B001214802FFF725FC00206C
:1022200000908DF8040001208DF805004FF4602027
:1022300002900020039001208DF810006946EB48C1
:10224000FEF717F94FF40040FFF772FB002301225D
:102250000A21E648FEF7A5F901224FF40871E34888
:10226000FEF749F90121E148FEF72FF9DF48FEF7B3
:102270004EF900BFDD48FEF74FF90028FAD1DB48E0
:10228000FEF754F900BFD948FEF755F90028FAD1F6
:102290000121D648FEF759F905B000BD08B54FF445
:1022A000C060FEF751F812208DF8000000208DF874
:1022B00001008DF8020001208DF803006846FEF74A
:1022C00048F808BD10B5FFF7E9FFFFF791FFFFF7EA
:1022D000A0FF10BD2DE9F04105460E460024002761
:1022E0009620C3490860C3490860C34908600021BB
:1022F000BE48FEF72AF90021BC48FEF7F1F800BFFE
:1023000004E00020BD4921F81400641C962CF8DB81
:102310000121B648FEF719F90121B448FEF7E0F8AB
:10232000304600F0B0FB002435E0B44830F814002B
:10233000B0B9012D05D1AE480068401EAC49086017
:102340000EE0022D05D1AB480068401EA949086087
:1023500006E0032D04D1A8480068401EA649086085
:10236000012D06D1A54830F81400A54941F82400F4
:1023700010E0022D06D1A14830F81400A14941F81F
:10238000240007E0032D05D19C4830F814009E4935
:1023900041F82400641C962CC7DBBDE8F08110B521
:1023A000002496480488214698A000F0A1FF20460A
:1023B00000F0AFFC10BD2DE9F047002400250026F9
:1023C00000270020944908609449086094490860F7
:1023D00062210120FFF77EFF4FF400719148FFF763
:1023E00014F94FF4DC7000F07CFAF82000F04BFB9D
:1023F00002218D48FFF709F9042000F044FB4FF457
:102400005C7000F06EFA942000F03DFB4FF48051B8
:102410008448FFF7FAF8042000F035FB4FF4007110
:102420008048FFF7F4F83A210220FFF753FF4FF4FA
:1024300000417C48FFF7E9F8122000F024FB3A2124
:102440000320FFF747FF4FF400417648FFF7DFF81E
:102450004FF480517348FFF7DAF802217248FFF712
:10246000D6F800BF04E0664850F824000544641C18
:10247000962CF8DB5E48006800F042FC8146284656
:1024800000F047FC8246494600F0FCFB804600F025
:1024900045FC61490860002404E05A4850F82400D3
:1024A0000644641C962CF8DB5248006800F028FCB7
:1024B0008146304600F02DFC8246494600F0E2FBA2
:1024C000804600F02BFC55490860002404E04E488B
:1024D00050F824000744641C962CF8DB464800683A
:1024E00000F00EFC8146384600F013FC8246494657
:1024F00000F0C8FB804600F011FC49490860BDE8C7
:10250000F0872DE9F05F0546002400260027A0464D
:102510000020414908604149086041490860622142
:102520000120FFF7D7FE4FF400713E48FFF76DF82A
:102530004FF4DC7000F0D5F9A81E00F0A4FA0221D7
:102540003948FFF762F8042000F09DFA4FF45C7000
:1025500000F0C7F9942000F096FA4FF4805131480A
:10256000FFF753F8042000F08EFA4FF400712D4865
:10257000FFF74DF83A210220FFF7ACFE4FF400417F
:102580002848FFF742F8122000F07DFA3A21032094
:10259000FFF7A0FE4FF400412248FFF738F84FF450
:1025A00080512048FFF733F802211F48FFF72FF82A
:1025B00000BF04E0124850F824000644641C962C26
:1025C000F8DB0B48006800F09BFB8246304600F0C9
:1025D000A0FB8346514600F055FB814600F09EFB70
:1025E0000D490860002426E000100140002401404D
:1025F000680000206C00002070000020F80100201E
:10260000240300207C050020D40700202531312E32
:1026100033660D0A00000000580000205C00002016
:102620006000002000180140000801408E4850F86A
:1026300024000744641C962CF8DB8C48006800F0EA
:102640005FFB8246384600F064FB8346514600F04B
:1026500019FB814600F062FB85490860002404E014
:10266000844850F824008044641C962CF8DB82488F
:10267000006800F045FB8246404600F04AFB834676
:10268000514600F0FFFA814600F048FB7B490860A4
:10269000BDE8F09F2DE9F04F85B006460024A34623
:1026A000A1460027A0460025002004900390029038
:1026B000734908606E49086062210120FFF70AFE35
:1026C00002217048FEF7A1FF012000F0DCF94FF471
:1026D00000716D48FEF799FF4FF480516A48FEF78C
:1026E00094FF012000F0CFF9052000F0CCF94FF461
:1026F00080516548FEF78BFF012000F0C4F9FFF719
:102700004EFE03900F2000F0BEF909F10A094FF4C4
:1027100080515D48FEF779FF042000F0B4F9FFF71F
:102720003EFE0290B0B200F0DCF84FF48051564803
:10273000FEF76DFF012000F0A6F9642000F0A3F978
:102740004FF480515048FEF760FF042000F09BF9E1
:102750004FF400714C48FEF75AFF00BF4FF40041A0
:102760004948FEF752FF122000F08DF93A2103206C
:10277000FFF7B0FD4FF400414348FEF748FF4FF428
:1027800080514148FEF743FF02213E48FEF73FFFDC
:1027900000BF04E03D4850F824000744641C962C18
:1027A000F8DB3B48006800F0ABFA0190384600F0D7
:1027B000B0FA0090019900F065FA824600F0AEFA96
:1027C0002F490860002404E0274850F82400804482
:1027D000641C962CF8DB2548006800F091FA019003
:1027E000404600F096FA0090019900F04BFA8246BC
:1027F00000F094FA1E490860002404E0254850F8CF
:1028000024000544641C962CF8DB1848006800F08E
:1028100077FA0190404600F07CFA0090019900F0B0
:1028200031FA824600F07AFA1B490860002404E07D
:10283000104850F824000544641C962CF8DB0E4820
:10284000006800F05DFA0190284600F062FA0090FE
:10285000019900F017FA824600F060FA0749086013
:1028600005B0BDE8F08F00007C0500206C00002062
:102870005C000020D40700207000002060000020D1
:1028800058000020000801400018014024030020E7
:10289000680000202C0A00206400002000B585B0EC
:1028A00001210420FFF7E0F801214807FFF7E9F8CC
:1028B0001020ADF8100000208DF8130004A9104876
:1028C000FEF7F6FD0020009001900220039069467B
:1028D0000020FEF7D2FC01210020FEF7EBFC05B042
:1028E00000BD10B5044621460020FEF744FD10BD92
:1028F00010B5FFF7D3FF0020FFF7F3FF10BD000076
:102900000008014008B501213820FFF7ADF810207C
:102910008DF8030003208DF802001020ADF80000B0
:1029200069461148FEF7C4FD4FF48050ADF8000031
:1029300069460E48FEF7BCFD0820ADF80000694668
:102940000B48FEF7B5FD0820ADF8000069460848C1
:10295000FEF7AEFD41F218010548FEF758FE08BD2E
:1029600010B5FFF7CFFF10BD00100140000C014073
:102970000014014008B501214420FFF775F84FF419
:102980000070ADF8000010208DF8030003208DF8D2
:10299000020069461F48FEF78BFD4FF48050ADF8EA
:1029A000000010208DF8030003208DF80200694616
:1029B0001848FEF77DFD4FF40040ADF800001020F0
:1029C0008DF8030003208DF8020069461148FEF7D8
:1029D0006FFD0220ADF8000010208DF803000320E9
:1029E0008DF8020069460C48FEF762FD4FF4007155
:1029F0000848FEF70CFE4FF480510648FEF707FE2C
:102A000002210548FEF703FE4FF400410148FEF79E
:102A1000FEFD08BD001801400008014030B5274800
:102A20000068274AB0FBF2F1B1F1807F01D30120A9
:102A30001DE021F07F40401E4FF0E0225061501712
:102A40000F22002807DA13071D0E1E4B00F00F049B
:102A5000241F1D5503E013071C0E1B4B1C5400BF05
:102A600000204FF0E022906107201061002008B1A3
:102A700000BFFEE74FF0E020006920F001004FF0BA
:102A8000E021086130BD01B51049009808604FF0A1
:102A9000E020006940F001004FF0E021086100BF34
:102AA0000A4800680028FBD108BD0848006820B12A
:102AB00006480068401E0549086070470000002075
:102AC00040420F0018ED00E000E400E07800002034
:102AD00008B501210920FEF7C7FF01214806FEF7CE
:102AE000D0FF01214FF4EA10FEF7B3FD4FF48070E0
:102AF000ADF8000048208DF8030003208DF8020097
:102B000069465048FEF7D4FC4FF40070ADF8000061
:102B100018208DF8030003208DF80200694649480B
:102B2000FEF7C6FC08BD08B54FF4C060FDF70CFC0D
:102B300014208DF8000000208DF801008DF80200AF
:102B400001208DF803006846FDF703FC08BD0EB5B3
:102B50003D48FDF78FFE6846FDF7B0FF00208DF879
:102B6000060001208DF807008DF8080000208DF880
:102B700009008DF80A008DF80B008DF80200012085
:102B80008DF8030005208DF8040002208DF8050063
:102B90000420ADF8000069462B48FDF784FE0EBD09
:102BA0001FB500208DF80A008DF80B0001208DF86C
:102BB0000C000020ADF8080001208DF80D006846DB
:102BC000FDF7FBFE012202211F48FEF7F5F91FBDAC
:102BD00010B5FFF77DFFFFF7A6FFFFF7B8FFFFF780
:102BE000DFFF10BDF0B5DDE905454126174F7E60DA
:102BF00004263E7200267E720626BE72F8723E469B
:102C000031737273B373F4733574F0BD0F4A50604F
:102C100004220E4B1A7200225A7208229A720A7803
:102C2000DA720B79094A13730B7A53730B7B937324
:102C30000B7CD3730B7D13740B7E53740B7F9374D7
:102C400070470000000C0140006400408400002038
:102C500010B545F25550FEF779FD0320FEF779FDDA
:102C6000074800684FF4A071B0FBF1F084B2204631
:102C7000FEF772FDFEF773FDFEF776FD10BD000056
:102C80007C00002030B480EA010202F0004530F000
:102C9000004221F0004013D090B1C30DD40DC2F317
:102CA0001601C0F31600E41A41F4000140F40002DA
:102CB0007D34914201D3641C00E04900002C02DA0B
:102CC00030BC002070474FF400000023914201D334
:102CD000891A034340084FEA4101F7D151B19142AB
:102CE00002D14FF0004105E002D24FF0010101E0B6
:102CF0006FF0010103EBC450284430BC00F069B808
:102D0000C10F80EAE0700844CA079623002100F052
:102D100069B896230022114600F064B820F0004004
:102D2000C10DC0F3160040F400007F2901DA002035
:102D30007047962903DCC1F19601C8407047963967
:102D40008840704730B50B46014600202022012400
:102D500009E021FA02F59D4205D303FA02F5491B69
:102D600004FA02F52844151EA2F10102F1DC30BD7F
:102D70002DE9F05F0546002092469B4688460646B0
:102D8000814640241BE0284641464746224600F043
:102D900030FA53465A46C01A914110D3114618468C
:102DA000224600F017FA2D1A67EB01084F4622461B
:102DB0000120002100F00EFA17EB00094E41201E01
:102DC000A4F10104DFDC484631462A464346BDE80B
:102DD000F09F0029A8BF7047401C490008BF20F0A1
:102DE0000100704710B4B0FA80FC00FA0CF050EA11
:102DF000010404BF10BC704749B1CCF1200421FA92
:102E000004F411FA0CF118BF012121430843A3EB8C
:102E10000C01CB1D4FEA00614FEA102042BF002099
:102E200010BC704700EBC35010440029A4BF10BC75
:102E30007047401C490008BF20F0010010BC7047DB
:102E40002DE9FE4F804681EA0300C00F0C4600903A
:102E500021F0004123F00045B8EB0200A94105D262
:102E60004046214690461C460B46024623F0004051
:102E7000104347D0270DC7F30A00C3F30A5102904D
:102E8000401A019040286BDAC3F3130040F4801B12
:102E90000098924620B10023D2EB030A63EB0B0BA0
:102EA00001985946C0F14002504600F093F9064699
:102EB0000D4650465946019A00F0ABF910EB080058
:102EC0006141002487EA115284EAE7731A4340D033
:102ED000009A62B3019A012A4FEA075215DC001BDF
:102EE00061EB02014FF0004202EA0752CDE90042D5
:102EF000001C41F5801132462B4600F0ABF903B0BF
:102F0000BDE8F08F40462146F9E7001B61EB020166
:102F1000001C41F5801300185B412018A2F5001732
:102F200047EB030140EAD570B6196D4111E06D0819
:102F30004FEA360645EAC0754FEA0752001B61EBBF
:102F40000201001C41F5801149084FEA30000019C8
:102F5000514132462B4603B0BDE8F04F00F06BB94B
:102F60000098012240000023D0EB020263EBE073E3
:102F7000009821464FEAE074B8EB000061EB0401D1
:102F8000E9E783F000435BE781F0004158E72DE972
:102F9000FE4F81EA030404F0004421F00041009454
:102FA0004FF0000B23F0004350EA01045ED052EAD8
:102FB00003045BD0C3F30A54C1F30A552C44A4F2B2
:102FC000F3340194A0FB0254C1F3130141F48011C6
:102FD000C3F3130343F4801301FB024400FB034ECD
:102FE000840A970A44EA815447EA8357A4FB076896
:102FF00002958D0A05FB07854FEA932C04FB0C54C0
:103000002705029D4FEA065847EA1637B5EB080533
:103010006EEB070C870E920E47EA811742EA831285
:10302000A7FB0201B6EB0B0164EB00042B0D43EA96
:103030000C335E1844EB1C50DA465146E7FB0201A4
:10304000C5F313044FEA0B3343EA14534FEA043237
:10305000019C43EA0603A4F10C040294009CCDE910
:1030600000B400F0F7F803B0BDE8F08F002001468F
:10307000F9E72DE9F04D81EA030404F0004B21F05B
:10308000004514464FF0000A23F0004150EA0502C3
:1030900020D054EA01021DD0C5F30A570246C5F3F9
:1030A0001303C1F31300C1F30A5640F4801543F42F
:1030B0008013A7EB0608101BD64608F2FD3873EB09
:1030C000050002D308F1010801E092185B41B8F154
:1030D000000F03DA00200146BDE8F08D00204FF418
:1030E0008011064684460EE0171B73EB050705D3D7
:1030F000121B63EB050306434CEA010C49084FEA37
:10310000300092185B4150EA0107EDD152EA03000A
:1031100012D082EA040083EA0501084305D0101B9F
:10312000AB4106D20122002306E000224FF000430B
:1031300002E06FF0010253101AEB06004CEB08514D
:1031400010EB0A0041EB0B01BDE8F04D00F073B845
:10315000C1F30A52C1F3130140F2FF3341F480116D
:103160009A4202DA00200146704740F233439A4205
:10317000A2F2334202DC524200F03BB800F02AB81F
:1031800030B5041E71F1000404DB4FF000444042EE
:1031900064EB0101141E73F1000405DB1C464FF0C3
:1031A0000043524263EB0403994208BF904230BD92
:1031B000064C074D06E0E06840F0010394E8070084
:1031C00098471034AC42F6D3FCF7B6FFE43B000856
:1031D000043C0008202A04DB203A00FA02F1002017
:1031E00070479140C2F1200320FA03F31943904045
:1031F0007047202A04DB203A21FA02F000217047B0
:1032000021FA02F3D040C2F120029140084319464E
:103210007047202A06DBCB17203A41FA02F043EA36
:10322000E07306E041FA02F3D040C2F1200291407F
:1032300008431946704710B5141E73F1000408DAEC
:10324000401C41F1000192185B411A4301D120F06A
:10325000010010BD2DE9F04D92469B4611B1B1FA27
:1032600081F202E0B0FA80F220329046FFF7B2FF1E
:1032700004460F4640EA0A0041EA0B0153465A460B
:10328000084313D0114653EA010019D0C8F1400297
:103290005046FFF7AEFF05460E4650465946424699
:1032A000FFF798FF084305D0012004E02046394687
:1032B000BDE8F08D0020054346EAE0762C43374315
:1032C0000A986305E40AA0EB08000022FD0A44EA1C
:1032D00047540A3002D500200146E9E701051019DC
:1032E0006941DDE9084500196941BDE8F04DA2E7F3
:1032F0000FB4054B10B503A9044A029800F0DAF8A0
:1033000010BC5DF814FB0000AD2100088000002017
:1033100002E008C8121F08C1002AFAD1704770479E
:10332000002001E001C1121F002AFBD170470000FC
:103330002DE9FF5F82B00021DDE90430020DDDF8E8
:1033400040B0034318D044F61050A2F2FF3242437B
:103350001514119801281FD0A5EB0B00401C5FEA43
:10336000000A4FF000064E4FDFF83891B046504645
:1033700015D5CAF1000413E0119801244AA30128CD
:1033800001D16FEA0B010298119AC0E90031C0E93E
:10339000024206B0BDE8F09FCBF10000DFE7044633
:1033A0000021404A491842EB0450CDE9001012E0D8
:1033B000E00707D032463B4640464946FFF7E7FD67
:1033C0008046894632463B4610461946FFF7DFFDE8
:1033D00006460F466410002CEAD1DDE90401DDE960
:1033E0000023BAF1000F06DAFFF7D1FD42464B4643
:1033F000FFF7CDFD05E0FFF73CFE42464B46FFF7E9
:1034000038FE04460E460022284BFFF7B9FE03D8CB
:103410004FF0FF30014607E00022254B20463146A1
:10342000FFF70EFDFFF794FE102409E0002C0ADBE5
:103430000A220023FFF79CFC039B30321A55641EBE
:1034400050EA0102F2D1641C039AC4F1110314443E
:10345000119A012A03D0012208430DD10AE0084342
:1034600004D000204FF0110B119072E7A3EB0B0575
:103470006D1E0DE05B4504DD4FF0000205F1010516
:1034800004E003DA4FF00002A5F10105002AECD0B8
:1034900002981199C0E90231C0E9004579E70000BE
:1034A000000014400000F03F300000000000F04336
:1034B0000000E03F2DE9FF4F95B09B468946064648
:1034C00000250FE2252877D100242746F84A01215C
:1034D000059400E0044316F8013F203B01FA03F095
:1034E0001042F7D130782A2811D06FF02F033078AE
:1034F000A0F13002092A16D8059A44F0020402EB22
:10350000820203EB42021044761C0590EFE759F863
:10351000042B0592002A03DA504244F4005405902B
:1035200044F00204761C30782E2816D116F8010FCC
:1035300044F004042A280DD06FF02F023078A0F157
:103540003003092B09D807EB870302EB4303C718A5
:10355000761CF3E759F8047B761C30786C280FD082
:1035600006DC4C2817D068280DD06A2814D104E056
:10357000742810D07A280FD10DE044F400140AE02A
:1035800044F4801401E044F440147278824202D181
:1035900004F58014761C761C307866280BD013DC7A
:1035A000582877D009DC002875D04528F6D0462861
:1035B000F4D047281AD19DE118E0632835D064285B
:1035C00079D0652812D195E1702873D008DC67287E
:1035D000F1D069286FD06E280DD06F2806D1B5E0E4
:1035E00073282CD0752875D0782874D05A4617992E
:1035F00090476D1C75E1C4F30250022809D00328DE
:103600000DD0D9F8001004280DD00D6009F104097F
:1036100067E1D9F80010EA17C1E90052F6E7D9F8D6
:1036200000100D80F2E70D70F0E719F8041B8DF81B
:10363000001000208DF80100EA46012003E059F84F
:1036400004AB4FF0FF3061074FF0000102D40DE0F2
:1036500008F101018846B9420FDA8045F8DB1AF813
:1036600008100029F4D108E008F1010188468142E0
:10367000FADB1AF808100029F6D105985B46A0EB92
:10368000080721463846179A00F094FA284400EBC0
:10369000080507E04DE029E10DE01AF8010B5A4654
:1036A00017999047B8F10108F7D25B462146384692
:1036B000179A13E142E00A220092C4F302524FF03B
:1036C000000A022A08D059F804CB032A4FEAEC7109
:1036D0000AD00DE029E02AE009F1070121F00702F4
:1036E000F2E802C1914609E00FFA8CFC4FEAEC7156
:1036F000042A03D14FFA8CFC4FEAEC71002907DA57
:103700000A460021DCF1000C61EB02012D2202E0EF
:10371000220504D52B228DF80420012203E0E207C4
:1037200001D02022F7E7904659E00A2102E010225A
:103730000DE010214FF0000A00910BE010224FF035
:10374000000A44F004040827009203E008224FF026
:10375000000A0092C4F30252022A05D059F804CBA1
:103760000021032A08D009E009F1070121F007022E
:10377000F2E802C1914605E01FFA8CFC042A01D14F
:103780000CF0FF0C4FF00008220728D5702806D057
:10379000009B83F0100353EA0A0305D00EE0402299
:1037A0008DF80420012208E05CEA010206D03022F4
:1037B0008DF804208DF8050002229046009B83F0CE
:1037C000080353EA0A030AD15CEA010201D1620745
:1037D00005D530228DF804204FF001087F1E5828AF
:1037E00004D034A003900EA802900DE036A0F9E7B3
:1037F00053466046009AFFF7BBFA84460398825C02
:103800000298401E029002705CEA0100F0D102981A
:1038100006A9081A00F1200A600702D524F48034B2
:1038200000E00127574502DDA7EB0A0000E0002079
:1038300000EB0A01009005984144401A0590E0030E
:1038400006D45B462146179A059800F0B3F9054463
:10385000002706E001A85A46C05D179990476D1CE5
:103860007F1C4745F6DBE0030CD55B462146179AE3
:10387000059800F09FF9054404E030205A46179956
:1038800090476D1C0099481E00900029F5DC08E067
:10389000029802995A460078491C0291179990475C
:1038A0006D1CBAF10001AAF1010AF1DC65E100002A
:1038B0000928010030313233343536373839616206
:1038C00063646566000000003031323334353637CA
:1038D00038394142434445460000000000F058F9A1
:1038E0000544761C307800287FF4ECAD19B02846EA
:1038F000BDE8F08F620700D4062709F1070222F025
:10390000070CFCE80223E14603F000485FEA080CDC
:1039100002D00FF2702C0DE05FEA045C02D50FF2CA
:10392000682C07E05FEAC47C02D00FF2602C01E053
:10393000AFF2700C4FF0FF3823F00043CDF850C0C9
:1039400065280CD006DC452809D046281DD047281C
:103950003DD13DE0662818D067287ED138E00021AF
:10396000112F01DB112000E0781CCDE9000106A930
:103970000EA8FFF7DDFCDDE90F010E9A039100218F
:10398000009207F1010A04914DE04FF000400097CA
:10399000CDE9011006A90EA8FFF7CAFCDDE90F0268
:1039A00003920E9B11990022DDF80CA00093049263
:1039B00011B9791C00EB010AB7EB0A0004D4C0F17D
:1039C000FF3007F1010A0490AAEB0700019044E0E0
:1039D000012F00DA01270021112F01DD112000E065
:1039E0003846CDE9000106A90EA8FFF7A1FCDDE9E4
:1039F0000F010E9A0391002104910092BA4621070B
:103A00000CD40399514500DA8A46BAF1010F05DD5D
:103A1000009AAAF10101515C302908D0B84202DABB
:103A200010F1040F06DA0121CDE9011015E0AAF129
:103A30000101E9E7002805DC049901440491AAEB9F
:103A4000000102E0411C514500DD8A460499401AFC
:103A5000401C01904FF000400290200704D40198D0
:103A6000504501DBCDF8048000208DF84F0002980E
:103A70000DF14F07B0F1004F25D02B200E9002988A
:103A80004FF0020800280CDA404202902D200E90E0
:103A900007E00A210298FFF755F93031029007F844
:103AA000011DB8F10001A8F10108F2DC029800281C
:103AB000EFD1791E0E980870307800F0200040F0A9
:103AC000450007F8020D12A8C01B00F10708149862
:103AD000007800B1012000EB0A01019801EBE071D0
:103AE00005984144401A401E0590E00306D45B4609
:103AF0002146179A059800F05DF80544149800785F
:103B000018B15A46179990476D1CE00324D55B46BF
:103B10002146179A059800F04DF805441CE00498DA
:103B2000002807DBDDE90301884203DD0098405CE3
:103B3000179901E0179930205A469047049805F1EB
:103B40000105401C04900198401E019004D12E20D4
:103B50005A46179990476D1CBAF10001AAF1010A63
:103B6000DDDC05E017F8010B5A46179990476D1CEC
:103B7000B8F10001A8F10108F4DC5B462146179A70
:103B80000598ABE62D0000002B000000200000008F
:103B90002DE9F041044600251E461746880404D44A
:103BA00005E039462020B0476D1C641EF9D5284633
:103BB000BDE8F0812DE9F041044600251E469046FF
:103BC000C80301D5302700E02027880404D505E08C
:103BD00041463846B0476D1C641EF9D52846BDE8FD
:103BE000F0810000043C0008000000208400000078
:103BF00010330008883C0008840000205C1200009C
:103C00002033000800A24A04000000000000000069
:103C10000102030406070809000000000102030472
:103C2000010203040607080902040608FF00000059
:103C30000000000000000000000000000000000084
:103C40000000000000000000000000000000000074
:103C50000000000000000000000000000000000064
:103C60000000000000000000000000000000000054
:103C70000000000000000000000000000000000044
:083C8000409C00000000000060
:0400000508000131BD
:00000001FF
