:020000040800F2
:100000006006002045010008192400081B24000890
:100010001F240008232400082724000800000000F3
:100020000000000000000000000000002B24000879
:100030002D240008000000002F24000831240008AF
:100040005F0100085F0100085F0100085F01000810
:100050005F0100085F0100085F0100085F01000800
:100060005F0100085F0100085F0100085F010008F0
:100070005F0100085F0100085F0100085F010008E0
:100080005F0100085F0100085F0100085F010008D0
:10009000B52300085F0100085F0100085F01000848
:1000A0005F0100085F0100085F0100085F010008B0
:1000B0005F0100085F0100085F0100085F010008A0
:1000C0005F0100085F0100085F0100085F01000890
:1000D0005F0100085F0100085F0100085F01000880
:1000E0005F0100085F0100085F0100085F01000870
:1000F0005F0100085F0100085F0100085F01000860
:100100005F0100085F0100085F0100085F0100084F
:100110005F0100085F0100085F0100085F0100083F
:100120005F0100085F0100085F0100085F0100082F
:10013000DFF80CD003F054FA004800475F210008B4
:10014000600600200648804706480047FEE7FEE7B5
:10015000FEE7FEE7FEE7FEE7FEE7FEE7FEE7FEE777
:1001600047020008310100080CB500200190009002
:100170006C48006840F480306A49086000BF6948F4
:10018000006800F4003000900198401C0190009835
:1001900018B90198B0F5A06FF1D16248006800F479
:1001A000003010B10120009001E000200090009884
:1001B000012843D15C48006840F010005A490860AB
:1001C0000846006820F0030008600846006840F018
:1001D0000200086053484068524948600846406839
:1001E00048600846406840F48060486008464068BF
:1001F00020F47C1048600846406840F4E8104860ED
:100200000846006840F08070086000BF45480068FC
:1002100000F000700028F9D04248406820F0030048
:10022000404948600846406840F00200486000BF0E
:100230003C48406800F00C000828F9D10CBD10B50E
:10024000FFF792FF10BD10B53648006840F001007E
:1002500034490860084640683449084031494860DC
:1002600008460068324908402E4908600846006880
:1002700020F4802008600846406820F4FE004860B2
:100280004FF41F008860FFF7DAFF4FF00060294944
:10029000086010BD10B5002100200022214B5B68D2
:1002A00003F00C0121B1042906D0082928D107E068
:1002B000214B224C236027E01F4B204C236023E07E
:1002C000184B5B6803F47010164B5B6803F48032C4
:1002D000022303EB904022B9194B4343174C236090
:1002E0000DE0104B5B6803F4003323B1144B434320
:1002F000124C236003E0104B4343104C236003E097
:100300000D4B0E4C236000BF00BF064B5B68C3F370
:1003100003130C4CE15C094B1B68CB40074C23607A
:1003200010BD000000100240002002400000FFF855
:10033000FFFFF6FE08ED00E000127A00000000204A
:1003400000093D000400002031490143314A116099
:10035000704770B5002100230F22C47804B32D4CE0
:10036000246804F4E064C4F5E064210AC1F10403E4
:10037000CA40447804FA03F1847814402143090107
:10038000254C0678A155047804F01F050124AC40E3
:1003900005786D11AD0005F1E025C5F8004109E0D3
:1003A000047804F01F050124AC401C4D067876113A
:1003B00045F8264070BD1A4A0A400243154B1B1FE0
:1003C0001A60704739B1134A121D12680243114B6B
:1003D0001B1D1A6006E00F4A121D126882430D4B66
:1003E0001B1D1A607047042808D14FF0E0210969ED
:1003F00041F004014FF0E022116107E04FF0E021ED
:10040000096921F004014FF0E022116170470000FA
:100410000000FA050CED00E000E400E080E100E0FF
:1004200080FFFF1F10B50446FA48844208D101211D
:10043000401501F03DFC0021601501F039FC17E08A
:10044000F548844208D10121001501F031FC00215A
:10045000201501F02DFC0BE0F048844208D1012169
:10046000C80301F025FC00214FF4004001F020FCFE
:1004700010BD30B50246002000235068E84C2040F3
:100480000D790C6844EA0524204350609068E54CDF
:100490002040D1E902542C434D7944EA45042043DD
:1004A0009060D06A20F470000C7C641EE4B2234398
:1004B00040EA0350D06230BD0021016001714171FA
:1004C0008160C16001210174704721B1826842F0EE
:1004D0000102826003E0826822F0010282607047BC
:1004E00021B1826842F48072826003E0826822F463
:1004F00080728260704710B50023CBB21AB1446895
:100500001C43446002E044689C43446010BD816821
:1005100041F0080181607047014600208A6802F0BE
:1005200008020AB1012000E000207047816841F014
:10053000040181607047014600208A6802F00402CD
:100540000AB1012000E00020704721B1826842F426
:10055000A002826003E0826822F4A00282607047F9
:10056000014600208A6802F480020AB1012000E0FE
:100570000020704710B50A4600210023416821F48D
:100580006041531E41EA4331416010BD21B14268D0
:1005900042F40062426003E0426822F4006242607A
:1005A0007047F0B504460D4600200021092D11DDED
:1005B000E068A5F10A0606EB4607072606FA07F1EA
:1005C0008843A5F10A0606EB460603FA06F108433E
:1005D000E0600CE0206905EB4507072606FA07F105
:1005E000884305EB450603FA06F108432061072A14
:1005F0000FDA606B561E06EB86071F2606FA07F118
:100600008843561E06EB860605FA06F1084360632A
:1006100022E00D2A0FDA206BD61F06EB86071F2675
:1006200006FA07F18843D61F06EB860605FA06F19F
:100630000843206310E0E06AA2F10D0606EB86078E
:100640001F2606FA07F18843A2F10D0606EB86067F
:1006500005FA06F10843E062F0BD21B1826842F478
:100660008012826003E0826822F480128260704708
:100670000146C86C80B2704766484C3000687047CD
:1006800021B1426842F48062426003E0426822F491
:1006900080624260704721B1426842F480524260F9
:1006A00003E0426822F48052426070470A4600210B
:1006B000816821F4E04111438160704721B1826873
:1006C00042F40042826003E0826822F400428260C9
:1006D000704721B1826842F40212826003E08268AE
:1006E00022F4021282607047014600208A6802F4F8
:1006F00000120AB1012000E000207047F0B5044666
:100700001546002000220026092911DDE068A1F12C
:100710000A0707EB470C072707FA0CF29043A1F1F1
:100720000A0707EB470703FA07F21043E0600CE003
:10073000206901EB410C072707FA0CF2904301EB0B
:10074000410703FA07F210432061A06BC0F3015682
:10075000EF1C06F1010CA7EB0C0707EB870C1F271A
:1007600007FA0CF29043EF1C06F1010CA7EB0C0703
:1007700007EB870701FA07F21043A063F0BD10B53D
:100780000A4600210023816B21F44011531E41EAE7
:100790000351816310BD08B5002300930090009BB6
:1007A0000B440093009B1A6008BD08B50246002068
:1007B0000090009201F12800009B184400900098DE
:1007C000006880B208BD0A4600214168164B1940F6
:1007D0001143416070474162826270470A460021BE
:1007E000416821F01F0111434160704740B1094940
:1007F0000831096841F40001064A0832116007E037
:1008000004490831096821F40001024A08321160E4
:10081000704700000024014000280140003C0140D6
:10082000FFFEF0FFFDF7F1FFFFFD3FFF0246002056
:1008300013680B400BB1012000E000207047CA4351
:100840000260704770B502460020002300240B129E
:100850005568CEB205EA060415681D4015B10CB105
:10086000012000E0002070BD00220A12D343036083
:100870007047000010B50446FE48844209D10121AA
:10088000480601F022FA00214FF0007001F01DFA35
:1008900008E00121880601F018FA00214FF080607D
:1008A00001F013FA10BD30B5024600200023146891
:1008B00024F002041460146844F00104146000E0A1
:1008C0005B1C546804F001041CB94FF6FF74A3428A
:1008D000F6D1546804F001040CB900206CE08C7966
:1008E000012C04D1146844F08004146003E01468FF
:1008F00024F080041460CC79012C04D1146844F0F5
:100900004004146003E0146824F0400414600C7A7E
:10091000012C04D1146844F02004146003E014682E
:1009200024F0200414604C7A012C04D1146844F0A3
:100930001004146003E0146824F0100414608C7A2E
:10094000012C04D1146844F00804146003E0146816
:1009500024F008041460CC7A012C04D1146844F00B
:100960000404146003E0146824F0040414608C7818
:10097000A407CD7844EA05640D7944EA05444D792D
:1009800044EA05540D886D1E2C43D461146824F08C
:1009900001041460002300E05B1C546804F00104AF
:1009A0001CB14FF6FF74A342F6D1546804F0010461
:1009B0000CB1002000E0012030BD10B50021837A89
:1009C000012202FA03F1AC4A126842F00102AA4B7A
:1009D0001A60A94A1C3212688A43A74B1C331A605A
:1009E000027BCAB9A44A0C3212688A43A24B0C3368
:1009F0001A604288C38842EA03439F4A4032847A9D
:100A000042F834300288838842EA03439A4A4032EB
:100A1000847A02EBC4025360027B012A19D1964A00
:100A20000C3212680A43944B0C331A6042880388D4
:100A300042EA0343904A4032847A42F83430C28812
:100A4000838842EA03438C4A4032847A02EBC40230
:100A50005360C27A3AB9884A121D12688A43864B9B
:100A60001B1D1A6006E0844A121D12680A43824B5D
:100A70001B1D1A60028932B97F4A143212688A43F8
:100A80007D4B14331A600289012A06D17A4A143246
:100A900012680A43784B14331A60427B012A06D14C
:100AA000754A1C3212680A43734B1C331A60724A2F
:100AB000126822F00102704B1A6010BD0021817192
:100AC000C171017241728172C1728170C170032162
:100AD0000171022141710121018070476649096855
:100AE00041F00101644A11601146096843F60E7233
:100AF0009143614A11601146096841EA0021116081
:100B00001146096821F001011160704721B10268A6
:100B100042F48032026003E0026822F48032026014
:100B20007047E1B1026842F0800202604FF4C27285
:100B3000125842F480734FF4C27213504FF4CA72C9
:100B4000125842F480734FF4CA7213504FF4D272A9
:100B5000125842F480734FF4D27213501BE00268B3
:100B600022F0800202604FF4C272125822F48073A5
:100B70004FF4C27213504FF4CA72125822F48073A9
:100B80004FF4CA7213504FF4D272125822F4807389
:100B90004FF4D2721350704710B50246002093688C
:100BA00003F08063B3F1806F00D110E0936803F02D
:100BB0000063B3F1006F01D1012008E0936803F0F6
:100BC0008053B3F1805F01D1022000E004200428AB
:100BD00079D002F5C07303EB00131B6803F0010426
:100BE00002F5C07303EB00131C600B7A7BB94B7AE0
:100BF0000C8843EA445302F5C07404EB00142468E3
:100C0000234302F5C07404EB0014236010E00B7A58
:100C10004C6843EAC4034C7A234302F5C07404EBE6
:100C200000142468234302F5C07404EB001423600D
:100C30008B7A03F00F038B7202F5C07303EB001382
:100C40005B6823F00F0402F5C07303EB00135C60D4
:100C500002F5C07303EB00135B688C7A234302F543
:100C6000C07404EB001463608B7B1C064B7B44EA6E
:100C7000034403E000640040006600400B7B44EA4C
:100C80000323CC7A234302F5C07404EB0014A36061
:100C90008B7C1C064B7C44EA03440B7C44EA032314
:100CA000CC7B234302F5C07404EB0014E36002F52F
:100CB000C07303EB00131B6843F0010402F5C0731B
:100CC00003EB00131C6010BD10B50246002321B1D8
:100CD000012907D002290FD109E09068F94C00EAF8
:100CE00004030BE09068F84C00EA040306E0906807
:100CF000F64C00EA040301E0002300BF00BFF44CFF
:100D0000181BA34216D007DC83B16FF08060184433
:100D100070B1022818D111E0B0F5007F10D0ED4C71
:100D2000204448B1B0F5003F0ED10BE002230DE0A6
:100D300000230BE0002309E0002307E0012305E086
:100D4000012303E0012301E0002300BF00BFD8B26C
:100D500010BD21B1012907D002290FD109E0826815
:100D600042F0800282600AE0826842F400428260BF
:100D700005E0826842F40002826000E000BF00BF2C
:100D8000704710B500F5D87303EB01131B6803F02F
:100D900004031372137A53B900F5D87303EB0113EC
:100DA0001B6840F2FF7404EA5353136009E000F536
:100DB000D87303EB01131B686FF0604404EAD3039C
:100DC000536000F5D87303EB01131B6803F00203B3
:100DD000537200F5D87303EB01135B6803F00F0344
:100DE000937200F5D87303EB01135B681B0AD3748D
:100DF00000F5D87303EB01139B68D37200F5D87329
:100E000003EB01139B681C0A147300F5D87303EB02
:100E100001139B681C0C547300F5D87303EB01138A
:100E20009B681B0E937300F5D87303EB0113DB680B
:100E3000D37300F5D87303EB0113DB681C0A147439
:100E400000F5D87303EB0113DB681C0C547400F538
:100E5000D87303EB0113DB681B0E937421B9C368CD
:100E600043F02003C36003E0036943F02003036100
:100E700010BD21B9C26842F02002C26003E00269DD
:100E800042F02002026170470246002019B9D3687F
:100E900003F0030006E0012903D1136903F0030006
:100EA00000E00020704710B502460B4600204FF6C8
:100EB000FF71BBB9146824F0020444F0010414600B
:100EC00000E0491E546804F00304012C01D00029FD
:100ED000F7D1546804F00304012C01D0002032E063
:100EE000012030E0012B13D1146824F003041460B6
:100EF00000E0491E546804F003040CB10029F8D145
:100F0000546804F003040CB100201CE001201AE036
:100F1000022B17D1146824F0010444F00204146079
:100F200000E0491E546804F00304022C01D000299B
:100F3000F7D1546804F00304022C01D0002002E031
:100F4000012000E0002010BD014600200A6822F0C8
:100F5000010242F002020A604A6802F00302022A19
:100F600000D10120704701464FF6FF7200200B6848
:100F700023F002030B6000E0521E4B6803F00203F3
:100F8000022B01D1002AF7D14B6803F00203022B98
:100F900000D001207047014600208A6902F07000ED
:100FA0007047014600208A69100E704701460020F4
:100FB0008A69C2F3074070471AB143690B43436122
:100FC00002E043698B434361704710B5024600203D
:100FD00001F4700343B19369C1F3130423400BB1CF
:100FE00001202DE000202BE001F0807343B1536815
:100FF000C1F3130423400BB1012021E000201FE0C6
:1010000001F0006343B19368C1F3130423400BB1B3
:10101000012015E0002013E001F0007343B1D36814
:10102000C1F3130423400BB1012009E0002007E0C5
:101030001369C1F3130423400BB1012000E0002029
:1010400010BD0022244B994202D10023836111E09C
:10105000C1F3130201F000730BB1C2600AE001F0AA
:1010600080630BB1026105E001F000630BB18260A7
:1010700000E0426070470246002002EA01030BB123
:10108000012000E00020704770B504460D460026A0
:1010900060692840002872D0B5F5807F69D01DDCDA
:1010A000082D42D006DC012D2DD0022D31D0042D8B
:1010B0007FD134E0102D3ED0202D42D0402D78D16C
:1010C00045E00000030000040003000800000310D6
:1010D000000100080001FFF77000F030B5F5004F87
:1010E00061D009DCB5F5007F4AD0B5F5806F4DD0F1
:1010F000B5F5006F5DD150E0B5F5803F2DD0B5F569
:10110000003F56D12FE0A0685549FFF7B4FF0646CF
:1011100051E0E0680321FFF7AEFF06464BE0E068D0
:101120000821FFF7A8FF064645E0E0681021FFF719
:10113000A2FF06463FE020690321FFF79CFF064619
:1011400039E020690821FFF796FF064633E0206961
:101150001021FFF790FF06462DE060680821FFF799
:101160008AFF064627E060681021FFF784FF0646E5
:1011700021E0A0690121FFF77EFF06461BE01BE08E
:10118000A0690221FFF777FF064614E0A069042159
:10119000FFF771FF06460EE00BE0A0697021FFF734
:1011A0006AFF064607E060680421FFF764FF064611
:1011B00001E0002600BF00E00026304670BDB1F51A
:1011C000007F3AD00FDC202928D006DC01291CD072
:1011D00004291DD0082940D11DE0402921D0B1F5B6
:1011E000807F3AD126E0B1F5004F31D006DCB1F571
:1011F000806F25D0B1F5006F2FD124E0B1F5803F8D
:1012000012D0B1F5003F28D111E0154A826025E0E7
:101210000822C26022E01022C2601FE008220261A0
:101220001CE01022026119E00822426016E0102240
:10123000426013E00422426010E0042242600DE0AC
:10124000042242600AE0002282610422426005E03A
:10125000002282610422426000E000BF00BF7047AC
:101260000101010010B50121480700F02EFD002109
:101270004FF0005000F029FD10BD30B500220023D2
:101280005A4C226840F6FE748440A243D1E90045DE
:101290002C438D682C43CD6844EA050303FA00F41F
:1012A0002243524C226030BD0021016041608160C8
:1012B000C160704739B14D4A1268012383401A4317
:1012C0004A4B1A6006E0494A1268012383409A4358
:1012D000464B1A60704741B1444A12684FF480533C
:1012E00083401A43414B1A6007E0404A12684FF4AA
:1012F000805383409A433D4B1A60704710B551B1FB
:101300003A4A121D126804090123A3401A43374BBD
:101310001B1D1A6009E0354A121D126804090123D9
:10132000A3409A43314B1B1D1A6010BD40B12F4999
:10133000091D096841F003012C4A121D116007E0E4
:101340002A49091D096821F00301284A121D11606C
:10135000704710B53AB1254B1B6801FA00F42343DE
:10136000224C236006E0214B1B6801FA00F4A343E2
:101370001E4C236010BD08B5002200921B4A00924B
:1013800000F10802009B1A440092009A116008BD07
:1013900008B500220092154A009200F11402009B49
:1013A0001A440092009A116008BD30B50024002351
:1013B000082802D142EA012401E042EA01440B4B31
:1013C00000F120052B441C6030BD08B5014600200B
:1013D0000090064800902C2000EB9100009A1044E9
:1013E00000900098006880B208BD000000740040C2
:1013F00001684FF6FE7211400160002101604160FA
:101400008160C1608D49884208D18C49083949689A
:1014100041F00F01894A083A51608AE08749143146
:10142000884208D185490839496841F0F001834A6A
:10143000083A51607DE081492831884208D17F49CE
:101440000839496841F470617C4A083A516070E09B
:101450007A493C31884208D178490839496841F4D1
:101460007041764A083A516063E0744950318842CD
:1014700008D172490839496841F470216F4A083A25
:10148000516056E06D496431884208D16B49083992
:10149000496841F47001694A083A516049E0674976
:1014A0007831884208D165490839496841F070614E
:1014B000624A083A51603CE06149884206D1011F06
:1014C000096841F00F01021F116032E05C491431DC
:1014D000884208D15A49091F096841F0F001584A69
:1014E000121F116025E056492831884208D154491D
:1014F000091F096841F47061514A121F116018E018
:101500004F493C31884208D14D49091F096841F4CF
:1015100070414B4A121F11600BE04949503188421B
:1015200007D14749091F096841F47021444A121F35
:101530001160704710B50022026847F6F0739A43B5
:101540000C6A8B6823430C6923434C6923438C69E1
:101550002343CC6923434C6A23438C6A23431A43B5
:101560000260CB6843600B6883604B68C36010BD4A
:101570000021016041608160C16001614161816160
:10158000C161016241628162704721B1026842F02B
:101590000102026004E002684FF6FE731A40026026
:1015A00070471AB103680B43036002E003688B4382
:1015B00003607047416070470146486880B27047D9
:1015C00001460020002201F080531BB11C4B083B58
:1015D0001A6802E0194B083B1A6802EA01030BB1D2
:1015E000012000E00020704700F0805119B114493B
:1015F000091F086002E01149083948607047014638
:101600000020002201F080531BB10D4B083B1A68EB
:1016100002E00A4B083B1A6802EA01030BB1012001
:1016200000E00020704700F0805119B10449091F03
:10163000086002E00149083948607047080002402C
:101640000804024010B50446CC48844208D1012168
:10165000042000F02DFB0021042000F029FB46E0CF
:10166000C748844208D10121082000F021FB002155
:10167000082000F01DFB3AE0C248844208D1012155
:10168000102000F015FB0021102000F011FB2EE0CF
:10169000BD48844208D10121202000F009FB00212F
:1016A000202000F005FB22E0B848844208D1012147
:1016B000402000F0FDFA0021402000F0F9FA16E089
:1016C000B348844208D10121802000F0F1FA0021C2
:1016D000802000F0EDFA0AE0AE48844207D10121F3
:1016E000801500F0E5FA0021A01500F0E1FA10BD28
:1016F00010B50121084600F0DBFA0021012000F0BE
:10170000D7FA10BD2DE9F041024600250026002041
:1017100000230024002791F803C00CF00F0591F876
:1017200003C00CF0100CBCF1000F03D091F802C004
:101730004CEA050591F800C0BCF1000F31D01468E7
:1017400000202BE04FF0010C0CFA00F3B1F800C0C0
:101750000CEA03069E4220D183004FF00F0C0CFAD6
:1017600003F7BC4305FA03FC4CEA040491F803C0F8
:10177000BCF1280F06D14FF0010C0CFA00FCC2F8A6
:1017800014C00AE091F803C0BCF1480F05D14FF036
:10179000010C0CFA00FCC2F810C0401C0828D1D380
:1017A0001460B1F800C0BCF1FF0F34DD54680020B4
:1017B0002EE000F1080C4FF0010808FA0CF3B1F824
:1017C00000C00CEA03069E4221D183004FF00F0CAB
:1017D0000CFA03F7BC4305FA03FC4CEA040491F845
:1017E00003C0BCF1280F05D100F1080C08FA0CF871
:1017F000C2F8148091F803C0BCF1480F07D100F182
:10180000080C4FF0010808FA0CF8C2F81080401CD0
:101810000828CED35460BDE8F0814FF6FF710180F7
:10182000022181700421C170704702460020936834
:101830000B400BB1012000E0002070470146886892
:1018400080B2704702460020D3680B400BB10120E4
:1018500000E0002070470146C86880B2704701610F
:101860007047416170470AB1016100E04161704712
:10187000C16070474FF480320A43826181618261A6
:1018800082698269704702460020434B18684FF610
:101890008073184040EA021008433F4B18607047BD
:1018A0003E49C8617047F0B50A4600230024002174
:1018B000002500F00046B6F1004F02D1364EF16926
:1018C00001E0354E7168C0F3034583B200F4401661
:1018D000B6F5401F08D121F070612F4E766826F0D2
:1018E00070662D4F7E6012E000F48016B6F5801F02
:1018F00006D1032606FA05F4A14341F0706106E023
:10190000460D360103FA06F6B14341F0706122B18B
:10191000460D360103FA06F6314300F00046B6F1F3
:10192000004F02D11C4EF16101E01B4E7160F0BD11
:1019300030B500228B071C0F0F2303FA04F2164B5D
:1019400008338C1053F824309343134C08348D1013
:1019500044F8253023468C1053F824308C07240F8C
:1019600000FA04F423430C4C08348D1044F825305D
:1019700030BD0A49DC3108607047000000080140B2
:10198000000C01400010014000140140001801400B
:10199000001C0140002001400000014000002042E6
:1019A000DF48006840F00100DD49086008464068F3
:1019B000DC490840DA49486008460068DA490840CE
:1019C000D74908600846006820F48020086008466F
:1019D000406820F4FE0048604FF41F0088607047A4
:1019E000CF49096821F48031CD4A11601146096858
:1019F00021F480211160B0F5803F03D0B0F5802F35
:101A00000ED106E0C649096841F48031C44A11602C
:101A100007E0C349096841F4A021C14A116000E010
:101A200000BF00BF704710B5014600220023002010
:101A30004A11012A02D1BA4C236806E0022A02D1D7
:101A4000B74C236A01E0B64C636A01F01F0201241F
:101A500094401C400CB1012000E0002010BD38B5BE
:101A6000002000900024002500BF3120FFF7DBFF9D
:101A700005460098401C00900098B0F5A06F01D07A
:101A8000002DF2D03120FFF7CEFF08B1012400E095
:101A90000024204638BD01460020A14A106820F0ED
:101AA000F80040EAC10010607047A0490860704724
:101AB000024600209A4B586820F47C1042EA010349
:101AC0001843974B5860704798490866704701461D
:101AD0000020934A506820F003000843506070478C
:101AE0008F48406800F00C007047014600208C4A87
:101AF000506820F0F0000843506070470146002015
:101B0000874A506820F4E0600843506070470146FF
:101B10000020834A506820F4605040EAC1005060C1
:101B2000704729B17E4A527A02437D4B5A7204E0D3
:101B30007B4A527A82437A4B5A7270477B49D8313A
:101B40000860704701460020754A506820F4404004
:101B50000843506070470021714A20321170704A6A
:101B600082F82010012802D004280AD104E00121C3
:101B70006B4A2032117005E00521694A203211704C
:101B800000E000BF00BF70476949086070476449C2
:101B9000096A0143624A1162704765494439086025
:101BA000704730B500210022002400235C4D6D6891
:101BB00005F00C0121B1042905D0082923D105E045
:101BC0005C4D056022E05B4D05601FE0544D6D6883
:101BD00005F47012524D6D6805F48034022505EB52
:101BE00092421CB9544D554305600BE04C4D6D6855
:101BF00005F400351DB1504D5543056002E04D4DD3
:101C00005543056002E04B4D056000BF00BF444DE9
:101C10006D6805F0F0010909484D6B5C0568DD4011
:101C200045603F4D6D6805F4E061090A434D6B5C0A
:101C30004568DD4085603A4D6D6805F46051C90A1C
:101C40003E4D6B5C4568DD40C560354D6D6805F403
:101C50004041890B3A4D6B5CC568B5FBF3F50561F6
:101C600030BD29B12E4A526902432D4B5A6104E01E
:101C70002B4A526982432A4B5A61704729B1284A3C
:101C800092690243264B9A6104E0254A9269824395
:101C9000234B9A61704729B1214AD2690243204BF4
:101CA000DA6104E01E4AD26982431D4BDA61704753
:101CB00029B11B4AD2680243194BDA6004E0184A82
:101CC000D2688243164BDA60704729B1144A126910
:101CD0000243134B1A6104E0114A12698243104B0C
:101CE0001A61704712494039086070470F49C8644B
:101CF00070470B49C87170470948406A40F08070CE
:101D000007494862704701460020054A92680A4028
:101D10000AB1012000E00020704701498872704735
:101D2000001002400000FFF8FFFFF6FE00004242F4
:101D30008004424200127A0000093D001400002095
:101D40002400002010B50446FB48844209D101213B
:101D50008803FFF7ADFF00214FF48040FFF7A8FF95
:101D600032E0F648844209D101214804FFF7ADFF73
:101D700000214FF40030FFF7A8FF25E0F04884422F
:101D800009D101218804FFF7A0FF00214FF4802032
:101D9000FFF79BFF18E0EB48844209D10121C804FA
:101DA000FFF793FF00214FF40020FFF78EFF0BE0B9
:101DB000E548844208D101210805FFF786FF00218C
:101DC0004FF48010FFF781FF10BD2DE9F04786B07A
:101DD00005460E460024A24600BFA1460027B08952
:101DE00000B100BF2F462C8A4CF6FF700440F088EB
:101DF00004432C82AC894EF6F3100440B08831893C
:101E00000843718908430443AC81AC8A4FF6FF4014
:101E10000440B0890443AC8201A8FFF7C2FEC64863
:101E2000874202D1DDF810A001E0DDF80CA0A889FE
:101E300000F4004040B10AEBCA0000EB0A10316820
:101E40004900B0FBF1F807E00AEBCA0000EB0A100A
:101E500031688900B0FBF1F86420B8FBF0F00401B0
:101E60002009642101FB1089A88900F4004040B1D9
:101E7000322000EBC900B0FBF1F000F00700044392
:101E800008E0322000EB09106421B0FBF1F000F013
:101E90000F0004432C8106B0BDE8F0874FF41651C3
:101EA000016000218180C18001810C2141810021DC
:101EB0008181704710B502460020108A4FF2FF035F
:101EC00018400B884C8823438C882343CC882343B9
:101ED0001843108210BD0021018041808180C180A3
:101EE000704721B1828942F40052828104E08289E4
:101EF0004DF6FF731A4082817047F0B50346002407
:101F000000260025002040F66A17B94200D100BF24
:101F10001846C1F3421401F01F06012707FA06F51F
:101F2000012C01D10C3004E0022C01D1103000E072
:101F300014301AB107682F43076002E00768AF4307
:101F40000760F0BD1AB1838A0B43838202E0838A63
:101F50008B4383827047028A4FF6F0731A400282E5
:101F6000028A0A430282704782894FF2FF731A4045
:101F7000828182890A438281704721B1828942F03D
:101F80000202828104E082894FF6FD731A40828149
:101F90007047028A4FF6DF731A400282028A0A43B0
:101FA0000282704721B1028A42F48042028204E038
:101FB000028A4BF6FF731A4002827047C1F308028F
:101FC0008280704701468888C0F308007047818985
:101FD00041F0010181817047028BD2B20283028BF2
:101FE00042EA012202837047028B02F47F4202839D
:101FF000028B0A430283704721B1828A42F0200299
:10200000828204E0828A4FF6DF731A408282704730
:1020100021B1828A42F01002828204E0828A4FF665
:10202000EF731A408282704721B1828A42F008021F
:10203000828204E0828A4FF6F7731A4082827047E8
:1020400021B1828942F40042828103E08289C2F395
:102050000E028281704721B1828A42F4006282823C
:1020600004E0828A4FF2FF731A4082827047828AAC
:102070004FF6FB731A408282828A0A43828270473B
:1020800021B1828A42F00202828204E0828A4FF603
:10209000FD731A408282704702460020B1F5007F2E
:1020A00000D100BF13880B400BB1012000E00020DD
:1020B000704701F40072B2F5007F00D100BFCA433F
:1020C0000280704770B502460024002300250020DE
:1020D00040F66A16B14200D100BFC1F3421501F0CB
:1020E0001F03012606FA03F3012D02D1968933401E
:1020F00006E0022D02D1168A334001E0968A334071
:102100000C12012606FA04F41688344013B10CB1FF
:10211000012000E0002070BD10B50022002340F631
:102120006A14A14200D100BF0A1201249440A3B254
:10213000DC43048010BD0000003801400044004032
:1021400000480040004C00400050004001B502E053
:102150000098401E009000980028F9D108BD002486
:10216000002500F051FF00F06DF900F0B7FE00F01F
:1021700048FA00F0F5FE00F0E9FE01F01FF810202B
:102180007D490861F6E000BF7C480068FF28FBD06D
:102190007A480068012804D0022844D003287DD161
:1021A0008CE07548C06880F010007349C86000F08A
:1021B000E4FB73480068734908607348006873491A
:1021C000086073480068734908606E480068C0B2D0
:1021D000714908606B480068000A48606B480068F5
:1021E000C0B2886069480068000AC8606948006831
:1021F000C0B2086167480068000A48610020886131
:10220000C861412000F0F8FF64496548FEF7C4FC4E
:10221000FF205A49086000205A4908605B4908605D
:102220005C490860A5E05448C06880F0100052493D
:10223000C8605C48417B807B642202FB001420461E
:1022400000F041FC4E4800684E4908604E48006866
:102250004E4908604E4800684E4908604948006889
:10226000C0B24D49086047480068000A48604748C6
:102270000068C0B2886045480068000AC8604548E8
:102280000068C0B2086143480068000A4861002045
:102290008861C861412000F0AFFF00E065E03F4980
:1022A0003F48FEF779FCFF2034490860002035499B
:1022B000086036490860374908605AE02E48C0680F
:1022C00080F010002C49C8603648C17A007B642237
:1022D00002FB0015284600F09DFC002032490860F2
:1022E0002748006827490860274800682749086090
:1022F0002E4800682E490860254800682549086076
:1023000020480068C0B2244908601E480068000ADE
:10231000486027480068C0B2886025480068000A05
:10232000C8601C480068C0B208611A480068000A0A
:10233000486116480068C0B2886114480068000A05
:10234000C861412000F058FF14491548FEF724FCED
:10235000FF200A49086000200A4908600B4908600C
:102360000C4908601249086003E0FF200349086037
:1023700000BF00BF07E70000001001402800002058
:102380003C0000202C0000204000002030000020F5
:10239000440000203400002088000020600000205D
:1023A0000064004074000020580000204800002015
:1023B0003800002010B5204A00212048FEF7E1FC3B
:1023C0001D48406841F20101884203D101201C49A7
:1023D000086020E01848406841F20201884203D1B9
:1023E00002201749086016E01348406841F20301D3
:1023F000884203D10320124908600CE00E4840686F
:1024000041F20401884203D104200D49086002E032
:10241000FF200B49086010BD704700BFFEE700BFFA
:10242000FEE700BFFEE700BFFEE77047704770475A
:1024300010B500F030FE10BD7400002000640040B4
:102440002800002000B585B001218803FFF716FCA5
:1024500001210420FFF712FC4FF40070ADF81000CA
:1024600018208DF8130003208DF8120004A92248CB
:10247000FFF748F94FF48060ADF8100004208DF8A4
:10248000130004A91C48FFF73DF94FF4E130009018
:102490000020ADF80400ADF80600ADF80800ADF876
:1024A0000C000C20ADF80A0069461448FFF78DFCBB
:1024B00001211248FFF715FD05B000BD70B50446B7
:1024C0000D46E1B20D48FFF779FD00BF80210B48B2
:1024D000FFF7E2FD0028F9D0204670BD10B5044694
:1024E00000BF20210548FFF7D7FD0028F9D0034899
:1024F000FFF768FD10BD00000008014000380140F2
:1025000008B501210420FFF7B9FB0420ADF8000055
:1025100000208DF803006946FB48FFF7F3F808BD7B
:1025200000B591B001210846FFF79BFB012148024D
:10253000FFF7A4FBF548FEF75BFFF5480690F5486A
:102540000790002008901420099000200A90802015
:102550000B9040000C9080000D9020200E90000207
:102560000F900020109006A9E848FEF7E3FF012134
:10257000E648FFF70AF8002001908DF808000120D6
:102580008DF809004FF46020039000200490012092
:102590008DF8140001A9DE484C38FDF76AFF4FF4AE
:1025A0004040FFF7CFFA022301221946D8484C38A1
:1025B000FDF7F7FF0121D6484C38FDF791FF0121C7
:1025C000D3484C38FDF781FFD1484C38FDF79FFFC9
:1025D00000BFCF484C38FDF79FFF0028F9D1CC4809
:1025E0004C38FDF7A3FF00BFC9484C38FDF7A3FFE7
:1025F0000028F9D10121C6484C38FDF7A6FF11B0DB
:1026000000BD10B5FFF77CFFFFF78AFF10BD2DE975
:10261000F04105460E46002400271420BE490860FC
:10262000BE490860BE4908600021B9484C38FDF732
:102630008CFF0021B6484C38FDF752FF00BF04E084
:102640000020B44921F81400641C142CF8DB01218B
:10265000AF484C38FDF779FF0121AD484C38FDF704
:102660003FFF304600F005FD002435E0A94830F872
:102670001400B0B9012D05D1A7480068401EA64935
:1026800008600EE0022D05D1A4480068401EA34951
:10269000086006E0032D04D1A1480068401EA0494F
:1026A0000860012D06D19B4830F814009D4941F87F
:1026B000240010E0022D06D1964830F814009A4903
:1026C00041F8240007E0032D05D1924830F81400AA
:1026D000964941F82400641C142CC7DBBDE8F08146
:1026E0002DE9F04105460F4616460024A0468A48CB
:1026F00006608A4806608A480660002184484C3893
:10270000FDF723FF002182484C38FDF7E9FE00BFAA
:1027100004E000207F4921F81400641CB442F8DB77
:1027200001217B484C38FDF710FF012178484C38D7
:10273000FDF7D6FE384600F09CFC002435E07548D5
:1027400030F81400B0B9012D05D173480068401E5F
:10275000714908600EE0022D05D170480068401EE6
:102760006E49086006E0032D04D16D480068401EE4
:102770006B490860012D06D1664830F8140069499C
:1027800041F8240010E0022D06D1624830F8140010
:10279000654941F8240007E0032D05D15D4830F874
:1027A0001400624941F82400641CB442C7DBBDE850
:1027B000F0812DE9F05F0024A3460220564908600D
:1027C000002153484C38FDF7C0FE002150484C38DA
:1027D000FDF786FE00BF04E000204E4921F81400FA
:1027E000641C062CF8DB012149484C38FDF7ADFE8E
:1027F000012147484C38FDF773FE082000F039FCF2
:1028000000240FE0434830F8140020B94248006823
:10281000401E414908603F4830F81400414941F8E2
:102820002400641C062CEDDB002404E03D4850F835
:1028300024008344641C062CF8DB3748006800F051
:10284000DFFD0646584600F0E4FD0746314600F03D
:1028500027FD054600F0E2FD35490860084600689E
:1028600000F0D7FD0646334900F01AFD054632490F
:1028700000F0E4FC8146484600F0E4FD07460022F3
:102880002E4B00F04BFD054600F0EFFD8246504612
:10289000BDE8F09F2DE9F05F002404250026A04646
:1028A000A14600211A484C38FDF74FFE0021184878
:1028B0004C38FDF715FE00BF04E00020154921F853
:1028C0001400641C022CF8DB012111484C38FDF780
:1028D0003CFE01210E484C38FDF702FE142000F0AA
:1028E000C8FB00240BE00B4830F8140000B96D1E43
:1028F000084830F81400124941F82400641C042CE4
:10290000F1DB002423E00000000801400800024041
:102910004C240140A80000204C0000205000002062
:1029200054000020D0000020200100207001002071
:102930004800002000F07F4500803B450000F83F44
:10294000C0010020FE4850F824000644641C022CFC
:10295000F8DB284600F054FD8246304600F059FD71
:102960008346514600F09CFC074600F057FDF549B0
:10297000086008460068BDE8F09F2DE9F047002494
:102980000025002600270020EF490860EF49086075
:10299000EF49086062210120FFF739FE4FF4007112
:1029A000EC48FEF75CFF4FF4DC7000F090FAF82082
:1029B00000F05FFB0221E848FEF751FF042000F021
:1029C00058FB4FF45C7000F082FA942000F051FB49
:1029D0004FF48051DF48FEF742FF042000F049FB2E
:1029E0004FF40071DB48FEF73CFF3A210220FFF76D
:1029F0000EFE4FF40041D748FEF731FF122000F0E1
:102A000038FB3A210320FFF702FE4FF40041D14882
:102A1000FEF727FF4FF48051CE48FEF722FF022138
:102A2000CD48FEF71EFF00BF04E0CC4850F824005C
:102A30000544641C142CF8DBC948006800F0E0FC75
:102A40008146284600F0E5FC8246494600F028FC15
:102A5000804600F0E3FCBC490860002404E0C14863
:102A600050F824000644641C142CF8DBBE480068AF
:102A700000F0C6FC8146304600F0CBFC8246494659
:102A800000F00EFC804600F0C9FCB049086000244C
:102A900004E0B64850F824000744641C142CF8DB0A
:102AA000B348006800F0ACFC8146384600F0B1FC49
:102AB0008246494600F0F4FB804600F0AFFCA44992
:102AC0000860BDE8F0872DE9F05F05460024002688
:102AD0000027A04600209C4908609C4908609C494A
:102AE000086062210120FFF792FD4FF400719948C0
:102AF000FEF7B5FE4FF4DC7000F0E9F9A81E00F017
:102B0000B8FA02219448FEF7AAFE042000F0B1FAB8
:102B10004FF45C7000F0DBF9942000F0AAFA4FF457
:102B200080518C48FEF79BFE042000F0A2FA4FF47F
:102B300000718848FEF795FE3A210220FFF767FDF5
:102B40004FF400418348FEF78AFE122000F091FA0C
:102B50003A210320FFF75BFD4FF400417D48FEF76B
:102B600080FE4FF480517B48FEF77BFE02217A48BD
:102B7000FEF777FE00BF04E0784850F824000644D2
:102B8000641C142CF8DB7648006800F039FC82469F
:102B9000304600F03EFC8346514600F081FB814602
:102BA00000F03CFC68490860002404E06D4850F8DF
:102BB00024000744641C142CF8DB6B48006800F008
:102BC0001FFC8246384600F024FC8346514600F044
:102BD00067FB814600F022FC5C490860002404E0A9
:102BE000624850F824008044641C142CF8DB6048D0
:102BF000006800F005FC8246404600F00AFC83466F
:102C0000514600F04DFB814600F008FC5049086039
:102C1000BDE8F09F2DE9FF5F07460025AA46002486
:102C20004FF47A7003904FF000084FF0000900262F
:102C30000020029044490860444908606221012054
:102C4000FFF7E5FC02214448FEF709FE012000F0F1
:102C500010FA641C61023F48FEF701FEE1033D48A3
:102C6000FEF7FDFD122000F004FA12344FF48051FB
:102C70003848FEF7F4FD012000F0FBF9641C052044
:102C800000F0F7F9641DFFF794FD0290083427E087
:102C9000322C07DDBAF1000F04D1B8B200F017F9F9
:102CA0004FF0010A4FF480512A48FEF7DAFD012067
:102CB00000F0DFF9641C142000F0DBF90A344FF453
:102CC00080512448FEF7CBFD012000F0D2F9641CAE
:102CD000052000F0CEF9641DFFF76BFD029008346B
:102CE0002449029800F0DEFBD2D34FF480511948FA
:102CF000FEF7B7FD042000F0BCF9241D642000F0AD
:102D0000B8F964344FF480511248FEF7A8FD012051
:102D100000F0AFF9641C4FF400710E48FEF7A1FDFE
:102D20004FF0000A3A210320FFF771FC4FF40041F5
:102D30000848FEF796FD4FF4805106481CE000005D
:102D4000C0010020480000203C000020400000207E
:102D5000440000200018014000080140D00000207D
:102D60004C000020200100205000002070010020B5
:102D7000540000200000A041FEF773FD02213648F8
:102D8000FEF76FFD002504E0344850F8250080442C
:102D90006D1C142DF8DB3248006800F031FB019007
:102DA000404600F036FB0090019900F079FA834626
:102DB00000F034FB2B490860002504E02A4850F855
:102DC000250081446D1C142DF8DB2848006800F0B4
:102DD00017FB0190484600F01CFB0090019900F0A1
:102DE0005FFA834600F01AFB21490860002504E0E1
:102DF000204850F8250006446D1C142DF8DB1B48B4
:102E0000006800F0FDFA0190484600F002FB0090D7
:102E1000019900F045FA834600F000FB164908606E
:102E2000002504E0154850F8250006446D1C142DBB
:102E3000F8DB1348006800F0E3FA0190304600F038
:102E4000E8FA0090019900F02BFA834600F0E6FAC8
:102E50000C490860BDE8FF9F00080140D000002039
:102E60004C0000203C0000202001002050000020E9
:102E700040000020C0010020480000207001002018
:102E8000540000204400002000B585B0012104203A
:102E9000FEF7F4FE01214807FEF7FDFE1020ADF815
:102EA000100000208DF8130004A91048FEF72AFC3A
:102EB0000020009001900220039069460020FEF758
:102EC000DCF901210020FEF7F5F905B000BD10B5D1
:102ED000044621460020FEF74EFA10BD10B5FFF75C
:102EE000D3FF0020FFF7F3FF10BD000000080140F2
:102EF00008B501213820FEF7C1FE10208DF803002F
:102F000003208DF802001020ADF80000694611483A
:102F1000FEF7F8FB4FF48050ADF8000069460E480C
:102F2000FEF7F0FB0820ADF8000069460B48FEF7FD
:102F3000E9FB0820ADF8000069460848FEF7E2FB0F
:102F400041F218010548FEF78CFC08BD10B5FFF7EB
:102F5000CFFF10BD00100140000C014000140140E3
:102F600008B501214420FEF789FE4FF40070ADF84A
:102F7000000010208DF8030003208DF80200694640
:102F80001F48FEF7BFFB4FF48050ADF80000102043
:102F90008DF8030003208DF8020069461848FEF7FB
:102FA000B1FB4FF40040ADF8000010208DF8030095
:102FB00003208DF8020069461148FEF7A3FB0220AA
:102FC000ADF8000010208DF8030003208DF80200FA
:102FD00069460C48FEF796FB4FF400710848FEF76F
:102FE00040FC4FF480510648FEF73BFC02210548A7
:102FF000FEF737FC4FF400410148FEF732FC08BDF4
:10300000001801400008014030B527480068274AF1
:10301000B0FBF2F1B1F1807F01D301201DE021F07E
:103020007F40401E4FF0E022506150170F220028D1
:1030300007DA13071D0E1E4B00F00F04241F1D5549
:1030400003E013071C0E1B4B1C5400BF00204FF065
:10305000E022906107201061002008B100BFFEE768
:103060004FF0E020006920F001004FF0E0210861FE
:1030700030BD01B51049009808604FF0E0200069AC
:1030800040F001004FF0E021086100BF0A480068ED
:103090000028FBD108BD0848006820B10648006838
:1030A000401E0549086070470000002040420F00A4
:1030B00018ED00E000E400E05C00002008B501210C
:1030C0000920FEF7DBFD01214806FEF7E4FD0121A2
:1030D0004FF4EA10FEF7E7FB4FF48070ADF8000004
:1030E00048208DF8030003208DF8020069465048FF
:1030F000FEF708FB4FF40070ADF8000018208DF8C3
:10310000030003208DF8020069464948FEF7FAFAE9
:1031100008BD08B54FF4C060FDF716F914208DF80E
:10312000000000208DF801008DF8020001208DF8CC
:1031300003006846FDF70DF908BD0EB53D48FDF7E3
:1031400099FB6846FDF7BAFC00208DF806000120C7
:103150008DF807008DF8080000208DF809008DF823
:103160000A008DF80B008DF8020001208DF8030095
:1031700005208DF8040002208DF805000420ADF82C
:10318000000069462B48FDF78EFB0EBD1FB50020E1
:103190008DF80A008DF80B0001208DF80C0000203E
:1031A000ADF8080001208DF80D006846FDF705FC1C
:1031B000012202211F48FDF7FFFE1FBD10B5FFF7DA
:1031C0007DFFFFF7A6FFFFF7B8FFFFF7DFFF10BD9A
:1031D000F0B5DDE905454126174F7E6004263E72B5
:1031E00000267E720626BE72F8723E4631737273F6
:1031F000B373F4733574F0BD0F4A506004220E4B64
:103200001A7200225A7208229A720A78DA720B79BC
:10321000094A13730B7A53730B7B93730B7CD37331
:103220000B7D13740B7E53740B7F937470470000F7
:10323000000C0140006400406000002080EA0102B0
:1032400010B502F00043400022D04A001FD0010E0A
:1032500001EB1261C0F35600C2F3560240F40000C5
:1032600042F40002A0FB022000047F39140400D0C5
:10327000401C50EA124001D44000491EC2B20C0664
:1032800004EBD010401C4008802A02D003E000204C
:1032900010BD20F00100002900DA0020184310BD05
:1032A00030B480EA010202F0004530F0004221F023
:1032B000004013D090B1C30DD40DC2F31601C0F37A
:1032C0001600E41A41F4000140F400027D349142FA
:1032D00001D3641C00E04900002C02DA30BC00205D
:1032E00070474FF400000023914201D3891A034331
:1032F00040084FEA4101F7D151B1914202D14FF05C
:10330000004105E002D24FF0010101E06FF0010140
:1033100003EBC450284430BC00F0CEB82DE9FE4F7A
:1033200081EA030404F0004421F0004100944FF0CE
:10333000000B23F0004350EA01045ED052EA03047C
:103340005BD0C3F30A54C1F30A552C44A4F2F334FE
:103350000194A0FB0254C1F3130141F48011C3F3A3
:10336000130343F4801301FB024400FB034E840A61
:10337000970A44EA815447EA8357A4FB07680295F9
:103380008D0A05FB07854FEA932C04FB0C54270597
:10339000029D4FEA065847EA1637B5EB08056EEB73
:1033A000070C870E920E47EA811742EA8312A7FBA9
:1033B0000201B6EB0B0164EB00042B0D43EA0C3366
:1033C0005E1844EB1C50DA465146E7FB0201C5F398
:1033D00013044FEA0B3343EA14534FEA0432019CBF
:1033E00043EA0603A4F10C040294009CCDE900B466
:1033F00000F0A8F803B0BDE8F08F00200146F9E71F
:10340000C10F80EAE0700844CA079623002100F04B
:103410005CB896230022114600F057B820F0004017
:10342000C10DC0F3160040F400007F2901DA00202E
:103430007047962903DCC1F19601C8407047963960
:103440008840704700F0004230F000400AD0C10DC3
:1034500001F56071C0F3160042EA0151C20840074D
:103460001143704700200146704701F0004330B41B
:1034700021F0004150EA010206D00A0DA2F5607267
:10348000C1F31301002A02DC30BC00207047440F56
:1034900044EAC104C100E01830BC00EBC25000F0A7
:1034A0000BB80000002801DBC0F10040002901DB5F
:1034B000C1F10041814270470029A8BF7047401CFC
:1034C000490008BF20F00100704710B4B0FA80FC3A
:1034D00000FA0CF050EA010404BF10BC704749B177
:1034E000CCF1200421FA04F411FA0CF118BF0121E7
:1034F00021430843A3EB0C01CB1D4FEA00614FEAC7
:10350000102042BF002010BC704700EBC350104495
:103510000029A4BF10BC7047401C490008BF20F020
:10352000010010BC704710B5141E73F1000408DAD6
:10353000401C41F1000192185B411A4301D120F077
:10354000010010BD2DE9F04D92469B4611B1B1FA34
:1035500081F202E0B0FA80F22032904600F052F898
:1035600004460F4640EA0A0041EA0B0153465A4618
:10357000084313D0114653EA010019D0C8F14002A4
:10358000504600F04EF805460E4650465946424613
:1035900000F038F8084305D0012004E02046394601
:1035A000BDE8F08D0020054346EAE0762C43374322
:1035B0000A986305E40AA0EB08000022FD0A44EA29
:1035C00047540A3002D500200146E9E701051019E9
:1035D0006941DDE9084500196941BDE8F04DA2E700
:1035E000064C074D06E0E06840F0010394E8070050
:1035F00098471034AC42F6D3FCF79EFD60360008C5
:1036000080360008202A04DB203A00FA02F100206C
:1036100070479140C2F1200320FA03F31943904010
:103620007047202A04DB203A21FA02F0002170477B
:1036300021FA02F3D040C2F120029140084319461A
:10364000704702E008C8121F08C1002AFAD170476B
:103650007047002001E001C1121F002AFBD1704712
:10366000803600080000002060000000423600089C
:10367000E036000860000020000600005236000816
:1036800000A24A0400000000000000000102030440
:1036900006070809000000000102030401020304F8
:1036A0000607080902040608FF00000000000000E9
:1036B000000000000000000000000000000000000A
:1036C00000000000000000000000000000000000FA
:1036D00000000000000000000000000000000000EA
:0400000508000131BD
:00000001FF
